{
  "contractName": "ERC721Metadata",
  "abi": [
    {
      "inputs": [
        {
          "internalType": "string",
          "name": "__name",
          "type": "string"
        },
        {
          "internalType": "string",
          "name": "__symbol",
          "type": "string"
        },
        {
          "internalType": "string",
          "name": "__baseTokenURI",
          "type": "string"
        }
      ],
      "stateMutability": "nonpayable",
      "type": "constructor"
    },
    {
      "anonymous": false,
      "inputs": [
        {
          "indexed": true,
          "internalType": "address",
          "name": "owner",
          "type": "address"
        },
        {
          "indexed": true,
          "internalType": "address",
          "name": "approved",
          "type": "address"
        },
        {
          "indexed": true,
          "internalType": "uint256",
          "name": "tokenId",
          "type": "uint256"
        }
      ],
      "name": "Approval",
      "type": "event"
    },
    {
      "anonymous": false,
      "inputs": [
        {
          "indexed": true,
          "internalType": "address",
          "name": "owner",
          "type": "address"
        },
        {
          "indexed": true,
          "internalType": "address",
          "name": "operator",
          "type": "address"
        },
        {
          "indexed": false,
          "internalType": "bool",
          "name": "approved",
          "type": "bool"
        }
      ],
      "name": "ApprovalForAll",
      "type": "event"
    },
    {
      "anonymous": false,
      "inputs": [
        {
          "indexed": false,
          "internalType": "address",
          "name": "newOwner",
          "type": "address"
        }
      ],
      "name": "OwnershipTransferred",
      "type": "event"
    },
    {
      "anonymous": false,
      "inputs": [
        {
          "indexed": false,
          "internalType": "address",
          "name": "sender",
          "type": "address"
        }
      ],
      "name": "Paused",
      "type": "event"
    },
    {
      "anonymous": false,
      "inputs": [
        {
          "indexed": true,
          "internalType": "address",
          "name": "from",
          "type": "address"
        },
        {
          "indexed": true,
          "internalType": "address",
          "name": "to",
          "type": "address"
        },
        {
          "indexed": true,
          "internalType": "uint256",
          "name": "tokenId",
          "type": "uint256"
        }
      ],
      "name": "Transfer",
      "type": "event"
    },
    {
      "anonymous": false,
      "inputs": [
        {
          "indexed": false,
          "internalType": "address",
          "name": "sender",
          "type": "address"
        }
      ],
      "name": "Unpaused",
      "type": "event"
    },
    {
      "inputs": [
        {
          "internalType": "address",
          "name": "to",
          "type": "address"
        },
        {
          "internalType": "uint256",
          "name": "tokenId",
          "type": "uint256"
        }
      ],
      "name": "_mint",
      "outputs": [
        {
          "internalType": "bool",
          "name": "",
          "type": "bool"
        }
      ],
      "stateMutability": "nonpayable",
      "type": "function"
    },
    {
      "inputs": [],
      "name": "_owner",
      "outputs": [
        {
          "internalType": "address",
          "name": "",
          "type": "address"
        }
      ],
      "stateMutability": "view",
      "type": "function"
    },
    {
      "inputs": [
        {
          "internalType": "address",
          "name": "to",
          "type": "address"
        },
        {
          "internalType": "uint256",
          "name": "tokenId",
          "type": "uint256"
        }
      ],
      "name": "approve",
      "outputs": [],
      "stateMutability": "nonpayable",
      "type": "function"
    },
    {
      "inputs": [
        {
          "internalType": "address",
          "name": "owner",
          "type": "address"
        }
      ],
      "name": "balanceOf",
      "outputs": [
        {
          "internalType": "uint256",
          "name": "",
          "type": "uint256"
        }
      ],
      "stateMutability": "view",
      "type": "function"
    },
    {
      "inputs": [
        {
          "internalType": "uint256",
          "name": "tokenId",
          "type": "uint256"
        }
      ],
      "name": "getApproved",
      "outputs": [
        {
          "internalType": "address",
          "name": "",
          "type": "address"
        }
      ],
      "stateMutability": "view",
      "type": "function"
    },
    {
      "inputs": [
        {
          "internalType": "address",
          "name": "owner",
          "type": "address"
        },
        {
          "internalType": "address",
          "name": "operator",
          "type": "address"
        }
      ],
      "name": "isApprovedForAll",
      "outputs": [
        {
          "internalType": "bool",
          "name": "",
          "type": "bool"
        }
      ],
      "stateMutability": "view",
      "type": "function"
    },
    {
      "inputs": [
        {
          "internalType": "uint256",
          "name": "tokenId",
          "type": "uint256"
        }
      ],
      "name": "ownerOf",
      "outputs": [
        {
          "internalType": "address",
          "name": "",
          "type": "address"
        }
      ],
      "stateMutability": "view",
      "type": "function"
    },
    {
      "inputs": [
        {
          "internalType": "address",
          "name": "from",
          "type": "address"
        },
        {
          "internalType": "address",
          "name": "to",
          "type": "address"
        },
        {
          "internalType": "uint256",
          "name": "tokenId",
          "type": "uint256"
        }
      ],
      "name": "safeTransferFrom",
      "outputs": [],
      "stateMutability": "nonpayable",
      "type": "function"
    },
    {
      "inputs": [
        {
          "internalType": "address",
          "name": "from",
          "type": "address"
        },
        {
          "internalType": "address",
          "name": "to",
          "type": "address"
        },
        {
          "internalType": "uint256",
          "name": "tokenId",
          "type": "uint256"
        },
        {
          "internalType": "bytes",
          "name": "_data",
          "type": "bytes"
        }
      ],
      "name": "safeTransferFrom",
      "outputs": [],
      "stateMutability": "nonpayable",
      "type": "function"
    },
    {
      "inputs": [
        {
          "internalType": "address",
          "name": "to",
          "type": "address"
        },
        {
          "internalType": "bool",
          "name": "approved",
          "type": "bool"
        }
      ],
      "name": "setApprovalForAll",
      "outputs": [],
      "stateMutability": "nonpayable",
      "type": "function"
    },
    {
      "inputs": [
        {
          "internalType": "bool",
          "name": "paused",
          "type": "bool"
        }
      ],
      "name": "setPausedStatus",
      "outputs": [],
      "stateMutability": "nonpayable",
      "type": "function"
    },
    {
      "inputs": [
        {
          "internalType": "bytes4",
          "name": "interfaceId",
          "type": "bytes4"
        }
      ],
      "name": "supportsInterface",
      "outputs": [
        {
          "internalType": "bool",
          "name": "",
          "type": "bool"
        }
      ],
      "stateMutability": "view",
      "type": "function"
    },
    {
      "inputs": [
        {
          "internalType": "uint256",
          "name": "index",
          "type": "uint256"
        }
      ],
      "name": "tokenByIndex",
      "outputs": [
        {
          "internalType": "uint256",
          "name": "",
          "type": "uint256"
        }
      ],
      "stateMutability": "view",
      "type": "function"
    },
    {
      "inputs": [
        {
          "internalType": "address",
          "name": "owner",
          "type": "address"
        },
        {
          "internalType": "uint256",
          "name": "index",
          "type": "uint256"
        }
      ],
      "name": "tokenOfOwnerByIndex",
      "outputs": [
        {
          "internalType": "uint256",
          "name": "",
          "type": "uint256"
        }
      ],
      "stateMutability": "view",
      "type": "function"
    },
    {
      "inputs": [],
      "name": "totalSupply",
      "outputs": [
        {
          "internalType": "uint256",
          "name": "",
          "type": "uint256"
        }
      ],
      "stateMutability": "view",
      "type": "function"
    },
    {
      "inputs": [
        {
          "internalType": "address",
          "name": "from",
          "type": "address"
        },
        {
          "internalType": "address",
          "name": "to",
          "type": "address"
        },
        {
          "internalType": "uint256",
          "name": "tokenId",
          "type": "uint256"
        }
      ],
      "name": "transferFrom",
      "outputs": [],
      "stateMutability": "nonpayable",
      "type": "function"
    },
    {
      "inputs": [
        {
          "internalType": "address",
          "name": "newOwner",
          "type": "address"
        }
      ],
      "name": "transferOwnership",
      "outputs": [],
      "stateMutability": "nonpayable",
      "type": "function"
    },
    {
      "inputs": [],
      "name": "name",
      "outputs": [
        {
          "internalType": "string",
          "name": "",
          "type": "string"
        }
      ],
      "stateMutability": "view",
      "type": "function"
    },
    {
      "inputs": [],
      "name": "symbol",
      "outputs": [
        {
          "internalType": "string",
          "name": "",
          "type": "string"
        }
      ],
      "stateMutability": "view",
      "type": "function"
    },
    {
      "inputs": [],
      "name": "baseTokenURI",
      "outputs": [
        {
          "internalType": "string",
          "name": "",
          "type": "string"
        }
      ],
      "stateMutability": "view",
      "type": "function"
    },
    {
      "inputs": [
        {
          "internalType": "uint256",
          "name": "tokenId",
          "type": "uint256"
        }
      ],
      "name": "tokenURI",
      "outputs": [
        {
          "internalType": "string",
          "name": "",
          "type": "string"
        }
      ],
      "stateMutability": "view",
      "type": "function"
    }
  ],
  "bytecode": "0x60806040523480156200001157600080fd5b506040516200193938038062001939833981016040819052620000349162000293565b600080546001600160a81b0319163360ff60a01b19161790556200005f6301ffc9a760e01b620000e0565b620000716380ac58cd60e01b620000e0565b6200008363780e9d6360e01b620000e0565b82516200009890600a90602086019062000120565b508151620000ae90600b90602085019062000120565b508051620000c490600c90602084019062000120565b50620000d7635b5e139f60e01b620000e0565b50505062000361565b6001600160e01b03198082161415620000f857600080fd5b6001600160e01b0319166000908152600160208190526040909120805460ff19169091179055565b8280546200012e9062000324565b90600052602060002090601f0160209004810192826200015257600085556200019d565b82601f106200016d57805160ff19168380011785556200019d565b828001600101855582156200019d579182015b828111156200019d57825182559160200191906001019062000180565b50620001ab929150620001af565b5090565b5b80821115620001ab5760008155600101620001b0565b634e487b7160e01b600052604160045260246000fd5b600082601f830112620001ee57600080fd5b81516001600160401b03808211156200020b576200020b620001c6565b604051601f8301601f19908116603f01168101908282118183101715620002365762000236620001c6565b816040528381526020925086838588010111156200025357600080fd5b600091505b8382101562000277578582018301518183018401529082019062000258565b83821115620002895760008385830101525b9695505050505050565b600080600060608486031215620002a957600080fd5b83516001600160401b0380821115620002c157600080fd5b620002cf87838801620001dc565b94506020860151915080821115620002e657600080fd5b620002f487838801620001dc565b935060408601519150808211156200030b57600080fd5b506200031a86828701620001dc565b9150509250925092565b600181811c908216806200033957607f821691505b602082108114156200035b57634e487b7160e01b600052602260045260246000fd5b50919050565b6115c880620003716000396000f3fe608060405234801561001057600080fd5b50600436106101065760003560e01c8062370c081461010b57806301ffc9a71461012057806306fdde0314610162578063081812fc14610177578063095ea7b31461019757806318160ddd146101aa57806323b872dd146101bc5780632f745c59146101cf57806342842e0e146101e25780634e6ec247146101f55780634f6ccce7146102085780636352211e1461021b57806370a082311461022e57806395d89b4114610241578063a22cb46514610249578063b2bdfa7b1461025c578063b88d4fde1461026f578063c87b56dd14610282578063d547cfb714610295578063e985e9c51461029d578063f2fde38b146102b0575b600080fd5b61011e61011936600461109e565b6102c3565b005b61014d61012e3660046110cf565b6001600160e01b03191660009081526001602052604090205460ff1690565b60405190151581526020015b60405180910390f35b61016a6103b6565b6040516101599190611139565b61018a61018536600461114c565b610448565b6040516101599190611165565b61011e6101a5366004611190565b610463565b6008545b604051908152602001610159565b61011e6101ca3660046111ba565b61065a565b6101ae6101dd366004611190565b6106a7565b61011e6101f03660046111ba565b6106fa565b61014d610203366004611190565b61073f565b6101ae61021636600461114c565b6107a7565b61018a61022936600461114c565b6107e2565b6101ae61023c3660046111f6565b6107fd565b61016a610818565b61011e610257366004611211565b610827565b60005461018a906001600160a01b031681565b61011e61027d36600461125a565b6108d3565b61016a61029036600461114c565b610923565b61016a610973565b61014d6102ab366004611335565b610982565b61011e6102be3660046111f6565b6109b0565b6000546001600160a01b031633146102f65760405162461bcd60e51b81526004016102ed9061135f565b60405180910390fd5b60008054600160a01b83151581810260ff60a01b1984161790935560ff91041615151480159081906103315750600054600160a01b900460ff165b156103b257600054600160a01b900460ff1615610383577f62e78cea01bee320cd4e420270b5ea74000d11b0c9f74754ebdbfc544b05a258336040516103779190611165565b60405180910390a15050565b7f5db9ee0a495bf2e6ff9c91a7834c1ba4fdd244a5e8aa4e537bd38aeae4b073aa336040516103779190611165565b5050565b6060600a80546103c5906113a6565b80601f01602080910402602001604051908101604052809291908181526020018280546103f1906113a6565b801561043e5780601f106104135761010080835404028352916020019161043e565b820191906000526020600020905b81548152906001019060200180831161042157829003601f168201915b5050505050905090565b6000908152600360205260409020546001600160a01b031690565b600054600160a01b900460ff161561048d5760405162461bcd60e51b81526004016102ed906113e1565b6000610498826107e2565b9050806001600160a01b0316836001600160a01b0316141561050a5760405162461bcd60e51b815260206004820152602560248201527f746f20616464726573732063616e2774206265207468652063757272656e742060448201526437bbb732b960d91b60648201526084016102ed565b6001600160a01b03831661056f5760405162461bcd60e51b815260206004820152602660248201527f746f2061646472657373206e6565647320746f20626520612076616c6964206160448201526564647265737360d01b60648201526084016102ed565b6000546001600160a01b031633148061058d575061058d8133610982565b6105fe5760405162461bcd60e51b815260206004820152603c60248201527f6d73672e73656e646572206973206e6569746865722074686520636f6e74726160448201527b18dd081bdddb995c881b9bdc88185c1c1bdd995908199bdc88185b1b60221b60648201526084016102ed565b60008281526003602052604080822080546001600160a01b0319166001600160a01b0387811691821790925591518593918516917f8c5be1e5ebec7d5bd14f71427d1e84f3dd0314c0f7b2291e5b200ac8c7c3b92591a4505050565b600054600160a01b900460ff16156106845760405162461bcd60e51b81526004016102ed906113e1565b61068e3382610b04565b61069757600080fd5b6106a2838383610b63565b505050565b60006106b2836107fd565b82106106bd57600080fd5b6001600160a01b03831660009081526006602052604090208054839081106106e7576106e7611418565b9060005260206000200154905092915050565b600054600160a01b900460ff16156107245760405162461bcd60e51b81526004016102ed906113e1565b6106a2838383604051806020016040528060008152506108d3565b60008061074c8484610b82565b90506107588484610c93565b6107a083600880546000838152600960205260408120829055600182018355919091527ff3f7a9fe364faab93b216da50a3214154f22a0a2b415b23a84c8169e8b636ee30155565b9392505050565b60006107b260085490565b82106107bd57600080fd5b600882815481106107d0576107d0611418565b90600052602060002001549050919050565b6000908152600260205260409020546001600160a01b031690565b6001600160a01b031660009081526004602052604090205490565b6060600b80546103c5906113a6565b600054600160a01b900460ff16156108515760405162461bcd60e51b81526004016102ed906113e1565b6001600160a01b03821633141561086757600080fd5b3360008181526005602090815260408083206001600160a01b03871680855290835292819020805460ff191686151590811790915590519081529192917f17307eab39ab6107e8899845ad3d59bd9653f200f220920489ca2b5937696c31910160405180910390a35050565b600054600160a01b900460ff16156108fd5760405162461bcd60e51b81526004016102ed906113e1565b61090884848461065a565b61091484848484610cd1565b61091d57600080fd5b50505050565b606061092e82610d80565b61093757600080fd5b600c600d600084815260200190815260200160002060405160200161095d9291906114c8565b6040516020818303038152906040529050919050565b6060600c80546103c5906113a6565b6001600160a01b03918216600090815260056020908152604080832093909416825291909152205460ff1690565b6000546001600160a01b031633146109da5760405162461bcd60e51b81526004016102ed9061135f565b6001600160a01b038116610a3e5760405162461bcd60e51b815260206004820152602560248201527f4e6577206f776e6572206e6565647320746f20626520612076616c6964206164604482015264647265737360d81b60648201526084016102ed565b6000546001600160a01b0382811691161415610aae5760405162461bcd60e51b815260206004820152602960248201527f4e6577206f776e6572206e6565647320746f206265206120646966666572656e60448201526874206164647265737360b81b60648201526084016102ed565b600080546001600160a01b0319166001600160a01b0383161790556040517f04dba622d284ed0014ee4b9a6a68386be1a4c08a4913ae272de89199cc68616390610af9908390611165565b60405180910390a150565b600080610b10836107e2565b9050806001600160a01b0316846001600160a01b03161480610b4b5750836001600160a01b0316610b4084610448565b6001600160a01b0316145b80610b5b5750610b5b8185610982565b949350505050565b610b6e838383610d9d565b610b788382610edd565b6106a28282610c93565b6000610b8d82610d80565b15610bd35760405162461bcd60e51b8152602060048201526016602482015275746f6b656e496420616c72656164792065786973747360501b60448201526064016102ed565b6001600160a01b038316610c245760405162461bcd60e51b815260206004820152601860248201527719da5d995b881859191c995cdcc81a5cc81a5b9d985b1a5960421b60448201526064016102ed565b600082815260026020908152604080832080546001600160a01b0319166001600160a01b038816908117909155835260049091529020805460010190556000805460405184926001600160a01b038088169316916000805160206115738339815191529190a450600192915050565b6001600160a01b0390911660009081526006602081815260408084208054868652600784529185208290559282526001810183559183529091200155565b60006001600160a01b0384163b610cea57506001610b5b565b604051630a85bd0160e11b81526000906001600160a01b0386169063150b7a0290610d1f9033908a90899089906004016114dd565b6020604051808303816000875af1158015610d3e573d6000803e3d6000fd5b505050506040513d601f19601f82011682018060405250810190610d62919061151a565b6001600160e01b031916630a85bd0160e11b14915050949350505050565b6000908152600260205260409020546001600160a01b0316151590565b6000610da8826107e2565b9050806001600160a01b0316846001600160a01b031614610e055760405162461bcd60e51b815260206004820152601760248201527627b7363c9037bbb732b91031b0b7103a3930b739b332b960491b60448201526064016102ed565b6001600160a01b038316610e585760405162461bcd60e51b815260206004820152601a602482015279746f206d75737420626520612076616c6964206164647265737360301b60448201526064016102ed565b610e6182610feb565b6001600160a01b0384166000908152600460205260409020610e8290611028565b6001600160a01b03838116600081815260046020908152604080832080546001019055868352600290915280822080546001600160a01b0319168417905551859388169160008051602061157383398151915291a450505050565b6001600160a01b038216600090815260066020526040812054610f0190600161107d565b600083815260076020526040902054909150808214610fa8576001600160a01b0384166000908152600660205260408120805484908110610f4457610f44611418565b906000526020600020015490508060066000876001600160a01b03166001600160a01b031681526020019081526020016000208381548110610f8857610f88611418565b600091825260208083209091019290925591825260079052604090208190555b6001600160a01b0384166000908152600660205260409020805480610fcf57610fcf611537565b6001900381819060005260206000200160009055905550505050565b6000818152600360205260409020546001600160a01b03161561102557600081815260036020526040902080546001600160a01b03191690555b50565b8054806110755760405162461bcd60e51b815260206004820152601b60248201527a436f756e7465723a2064656372656d656e74206f766572666c6f7760281b60448201526064016102ed565b600019019055565b60006107a0828461154d565b8035801515811461109957600080fd5b919050565b6000602082840312156110b057600080fd5b6107a082611089565b6001600160e01b03198116811461102557600080fd5b6000602082840312156110e157600080fd5b81356107a0816110b9565b6000815180845260005b81811015611112576020818501810151868301820152016110f6565b81811115611124576000602083870101525b50601f01601f19169290920160200192915050565b6020815260006107a060208301846110ec565b60006020828403121561115e57600080fd5b5035919050565b6001600160a01b0391909116815260200190565b80356001600160a01b038116811461109957600080fd5b600080604083850312156111a357600080fd5b6111ac83611179565b946020939093013593505050565b6000806000606084860312156111cf57600080fd5b6111d884611179565b92506111e660208501611179565b9150604084013590509250925092565b60006020828403121561120857600080fd5b6107a082611179565b6000806040838503121561122457600080fd5b61122d83611179565b915061123b60208401611089565b90509250929050565b634e487b7160e01b600052604160045260246000fd5b6000806000806080858703121561127057600080fd5b61127985611179565b935061128760208601611179565b92506040850135915060608501356001600160401b03808211156112aa57600080fd5b818701915087601f8301126112be57600080fd5b8135818111156112d0576112d0611244565b604051601f8201601f19908116603f011681019083821181831017156112f8576112f8611244565b816040528281528a602084870101111561131157600080fd5b82602086016020830137600060208483010152809550505050505092959194509250565b6000806040838503121561134857600080fd5b61135183611179565b915061123b60208401611179565b60208082526027908201527f4f6e6c79206f776e657220616c6c6f776420746f207472616e73666572206f7760408201526606e6572736869760cc1b606082015260800190565b600181811c908216806113ba57607f821691505b602082108114156113db57634e487b7160e01b600052602260045260246000fd5b50919050565b6020808252601d908201527f436f6e7472616374206e6565647320746f20626520756e706175736564000000604082015260600190565b634e487b7160e01b600052603260045260246000fd5b8054600090600181811c908083168061144857607f831692505b602080841082141561146a57634e487b7160e01b600052602260045260246000fd5b81801561147e576001811461148f576114bc565b60ff198616895284890196506114bc565b60008881526020902060005b868110156114b45781548b82015290850190830161149b565b505084890196505b50505050505092915050565b6000610b5b6114d7838661142e565b8461142e565b6001600160a01b0385811682528416602082015260408101839052608060608201819052600090611510908301846110ec565b9695505050505050565b60006020828403121561152c57600080fd5b81516107a0816110b9565b634e487b7160e01b600052603160045260246000fd5b60008282101561156d57634e487b7160e01b600052601160045260246000fd5b50039056feddf252ad1be2c89b69c2b068fc378daa952ba7f163c4a11628f55a4df523b3efa264697066735822122008bf9916bda1c9a2a811a488a7015b411385ba131eafed04b884d4c21e8bf50f64736f6c634300080b0033",
  "immutableReferences": {},
  "source": "pragma solidity ^0.8.11;\n\nimport \"@openzeppelin/contracts/utils/Address.sol\";\nimport \"@openzeppelin/contracts/utils/Counters.sol\";\nimport \"@openzeppelin/contracts/utils/Strings.sol\";\nimport \"@openzeppelin/contracts/utils/math/SafeMath.sol\";\nimport \"@openzeppelin/contracts/token/ERC721/IERC721Receiver.sol\";\n\nabstract contract Ownable {\n\n    address public _owner;\n\n    event OwnershipTransferred(address newOwner);\n\n    modifier onlyOwner() {\n\t\t\trequire(\n\t\t\t\tmsg.sender == _owner,\n\t\t\t\t\"Only owner allowd to transfer ownership\"\n\t\t\t);\n\t\t\t_;\n    }\n\n    constructor() {\n\t\t\t_owner = msg.sender;\n    }\n\n    function transferOwnership(address newOwner) public onlyOwner {\n\t\t\trequire(\n\t\t\t\t\tnewOwner != address(0),\n\t\t\t\t\t\"New owner needs to be a valid address\"\n\t\t\t);\n\t\t\trequire(\n\t\t\t\t\tnewOwner != _owner,\n\t\t\t\t\t\"New owner needs to be a different address\"\n\t\t\t);\n\t\t\t_owner = newOwner;\n\t\t\temit OwnershipTransferred(newOwner);\n    }\n}\n\n//  TODO's: Create a Pausable contract that inherits from the Ownable contract\n//  1) create a private '_paused' variable of type bool\n//  2) create a public setter using the inherited onlyOwner modifier\n//  3) create an internal constructor that sets the _paused variable to false\n//  4) create 'whenNotPaused' & 'paused' modifier that throws in the appropriate situation\n//  5) create a Paused & Unpaused event that emits the address that triggered the event\n\nabstract contract Pausable is Ownable {\n\n\tbool private _paused;\n\n\tevent Paused(address sender);\n\tevent Unpaused(address sender);\n\n\tmodifier whenPaused(){\n\t\trequire(_paused == true, \"Contract needs to be paused\");\n\t\t_;\n\t}\n\n\tmodifier whenNotPaused(){\n\t\trequire(_paused == false, \"Contract needs to be unpaused\");\n\t\t_;\n\t}\n\n\tconstructor () {\n\t\t_paused = false;\n\t}\n\n\tfunction setPausedStatus(bool paused) onlyOwner public {\n\t\tbool differs = _paused != paused;\n\t\t_paused = paused;\n\t\tif (differs && _paused){\n\t\t\tif (_paused) {\n\t\t\t\temit Paused(msg.sender);\n\t\t\t}\n\t\t\telse {\n\t\t\t\temit Unpaused(msg.sender);\n\t\t\t}\n\t\t}\n\t}\n\n}\n\nabstract contract ERC165 is Pausable {\n\n\tbytes4 private constant _INTERFACE_ID_ERC165 = 0x01ffc9a7;\n\t/*\t\n\t\t* 0x01ffc9a7 ===\n\t\t*     bytes4(keccak256('supportsInterface(bytes4)'))\n\t\t*/\n\n\t/**\n\t\t* @dev a mapping of interface id to whether or not it's supported\n\t\t*/\n\tmapping(bytes4 => bool) private _supportedInterfaces;\n\n\t\n\n\t/**\n\t\t* @dev A contract implementing SupportsInterfaceWithLookup\n\t\t* implement ERC165 itself\n\t\t*/\n\tconstructor() {\n\t\t_registerInterface(_INTERFACE_ID_ERC165);\n\t}\n\n\t/**\n\t\t* @dev implement supportsInterface(bytes4) using a lookup table\n\t\t*/\n\tfunction supportsInterface(bytes4 interfaceId)\n\texternal\n\tview\n\treturns (bool)\n\t{\n\t\treturn _supportedInterfaces[interfaceId];\n\t}\n\n\t/**\n\t\t* @dev internal method for registering an interface\n\t\t*/\n\tfunction _registerInterface(bytes4 interfaceId) internal {\n\t\trequire(interfaceId != 0xffffffff);\n\t\t_supportedInterfaces[interfaceId] = true;\n\t}\n}\n\nabstract contract ERC721 is Pausable, ERC165 {\n    \n\tevent Transfer(\n\t\taddress indexed from,\n\t\taddress indexed to,\n\t\tuint256 indexed tokenId\n\t);\n\n\tevent Approval(\n\t\taddress indexed owner,\n\t\taddress indexed approved,\n\t\tuint256 indexed tokenId\n\t);\n\n\tevent ApprovalForAll(\n\t\taddress indexed owner,\n\t\taddress indexed operator,\n\t\tbool approved\n\t);\n\n\tusing SafeMath for uint256;\n\tusing Address for address;\n\tusing Counters for Counters.Counter;\n\n\t// Equals to `bytes4(keccak256(\"onERC721Received(address,address,uint256,bytes)\"))`\n\t// which can be also obtained as `IERC721Receiver(0).onERC721Received.selector`\n\tbytes4 private constant _ERC721_RECEIVED = 0x150b7a02;\n\n\t// Mapping from token ID to owner\n\tmapping(uint256 => address) private _tokenOwner;\n\n\t// Mapping from token ID to approved address\n\tmapping(uint256 => address) private _tokenApprovals;\n\n\t// Mapping from owner to number of owned token\n\t// IMPORTANT: this mapping uses Counters lib which is used to protect overflow when incrementing/decrementing a uint\n\t// use the following functions when interacting with Counters: increment(), decrement(), and current() to get the value\n\t// see: https://github.com/OpenZeppelin/openzeppelin-solidity/blob/master/contracts/drafts/Counters.sol\n\tmapping(address => Counters.Counter) private _ownedTokensCount;\n\n\t// Mapping from owner to operator approvals\n\tmapping(address => mapping(address => bool)) private _operatorApprovals;\n\n\tbytes4 private constant _INTERFACE_ID_ERC721 = 0x80ac58cd;\n\n\tconstructor() {\n\t\t// register the supported interfaces to conform to ERC721 via ERC165\n\t\t_registerInterface(_INTERFACE_ID_ERC721);\n\t}\n\n\tfunction balanceOf(address owner) public view returns (uint256) {\n\t\treturn _ownedTokensCount[owner].current();\n\t}\n\n\tfunction ownerOf(uint256 tokenId) public view returns (address) {\n\t\treturn _tokenOwner[tokenId];\n\t}\n\n\t//    @dev Approves another address to transfer the given token ID\n\tfunction approve(address to, uint256 tokenId) whenNotPaused public {\n\t\t// TODO require the given address to not be the owner of the tokenId\n\t\t// TODO require the msg sender to be the owner of the contract or isApprovedForAll() to be true\n\t\t// TODO add 'to' address to token approvals\n\t\t// TODO emit Approval Event\n\t\taddress owner = ownerOf(tokenId);\n\t\trequire(to != owner, \"to address can't be the current owner\");\n\t\trequire(to != address(0), \"to address needs to be a valid address\");\n\t\trequire(msg.sender == _owner || isApprovedForAll(owner,msg.sender), \"msg.sender is neither the contract owner nor appoved for all\");\n\t\t_tokenApprovals[tokenId] = to;\n\t\temit Approval(owner,to,tokenId);\n\t}\n\n\tfunction getApproved(uint256 tokenId) public view returns (address) {\n\t\t// TODO return token approval if it exists\n\t\treturn _tokenApprovals[tokenId];\n\t}\n\n\t/**\n\t\t* @dev Sets or unsets the approval of a given operator\n\t\t* An operator is allowed to transfer all tokens of the sender on their behalf\n\t\t* @param to operator address to set the approval\n\t\t* @param approved representing the status of the approval to be set\n\t\t*/\n\tfunction setApprovalForAll(address to, bool approved) whenNotPaused public {\n\t\t\trequire(to != msg.sender);\n\t\t\t_operatorApprovals[msg.sender][to] = approved;\n\t\t\temit ApprovalForAll(msg.sender, to, approved);\n\t}\n\n\t/**\n\t\t* @dev Tells whether an operator is approved by a given owner\n\t\t* @param owner owner address which you want to query the approval of\n\t\t* @param operator operator address which you want to query the approval of\n\t\t* @return bool whether the given operator is approved by the given owner\n\t\t*/\n\tfunction isApprovedForAll(address owner, address operator)\n\t\t\tpublic\n\t\t\tview\n\t\t\treturns (bool)\n\t{\n\t\t\treturn _operatorApprovals[owner][operator];\n\t}\n\n\tfunction transferFrom(\n\t\t\taddress from,\n\t\t\taddress to,\n\t\t\tuint256 tokenId\n\t) whenNotPaused public {\n\t\t\trequire(_isApprovedOrOwner(msg.sender, tokenId));\n\n\t\t\t_transferFrom(from, to, tokenId);\n\t}\n\n\tfunction safeTransferFrom(\n\t\t\taddress from,\n\t\t\taddress to,\n\t\t\tuint256 tokenId\n\t) public whenNotPaused {\n\t\t\tsafeTransferFrom(from, to, tokenId, \"\");\n\t}\n\n\tfunction safeTransferFrom(\n\t\t\taddress from,\n\t\t\taddress to,\n\t\t\tuint256 tokenId,\n\t\t\tbytes memory _data\n\t) whenNotPaused public {\n\t\t\ttransferFrom(from, to, tokenId);\n\t\t\trequire(_checkOnERC721Received(from, to, tokenId, _data));\n\t}\n\n\t/**\n\t\t* @dev Returns whether the specified token exists\n\t\t* @param tokenId uint256 ID of the token to query the existence of\n\t\t* @return bool whether the token exists\n\t\t*/\n\tfunction _exists(uint256 tokenId) internal view returns (bool) {\n\t\taddress owner = _tokenOwner[tokenId];\n\t\treturn owner != address(0);\n\t}\n\n\t/**\n\t\t* @dev Returns whether the given spender can transfer a given token ID\n\t\t* @param spender address of the spender to query\n\t\t* @param tokenId uint256 ID of the token to be transferred\n\t\t* @return bool whether the msg.sender is approved for the given token ID,\n\t\t* is an operator of the owner, or is the owner of the token\n\t\t*/\n\tfunction _isApprovedOrOwner(address spender, uint256 tokenId)\n\t\t\tinternal\n\t\t\tview\n\t\t\treturns (bool)\n\t{\n\t\t\taddress owner = ownerOf(tokenId);\n\t\t\treturn (spender == owner ||\n\t\t\t\t\tgetApproved(tokenId) == spender ||\n\t\t\t\t\tisApprovedForAll(owner, spender));\n\t}\n\n\t// @dev Internal function to mint a new token\n\t// TIP: remember the functions to use for Counters. you can refresh yourself with the link above\n\tfunction _mint(address to, uint256 tokenId) public virtual returns(bool) {\n\t\t\t// TODO revert if given tokenId already exists or given address is invalid\n\t\t\t// TODO mint tokenId to given address & increase token count of owner\n\t\t\t// TODO emit Transfer event\n\t\trequire(_exists(tokenId) == false, \"tokenId already exists\");\n\t\trequire(to != address(0), \"given address is invalid\");\n\t\t_tokenOwner[tokenId] = to;\n\t\t_ownedTokensCount[to].increment();\n\t\temit Transfer(_owner,to,tokenId);\n\t\treturn true;\n\t}\n\n\t// @dev Internal function to transfer ownership of a given token ID to another address.\n\t// TIP: remember the functions to use for Counters. you can refresh yourself with the link above\n\tfunction _transferFrom(\n\t\t\taddress from,\n\t\t\taddress to,\n\t\t\tuint256 tokenId\n\t) virtual internal  {\n\t\t// TODO: require from address is the owner of the given token\n\t\t// TODO: require token is being transfered to valid address\n\t\t// TODO: clear approval\n\t\t// TODO: update token counts & transfer ownership of the token ID\n\t\t// TODO: emit correct event\n\t\taddress owner = ownerOf(tokenId);\n\t\trequire(from == owner, \"Only owner can transfer\");\n\t\trequire(to != address(0), \"to must be a valid address\");\n\t\t_clearApproval(tokenId);\n\t\t_ownedTokensCount[from].decrement();\n\t\t_ownedTokensCount[to].increment();\n\t\t_tokenOwner[tokenId] = to;\n\t\temit Transfer(from,to,tokenId);\n\t}\n\n\t/**\n\t\t* @dev Internal function to invoke `onERC721Received` on a target address\n\t\t* The call is not executed if the target address is not a contract\n\t\t* @param from address representing the previous owner of the given token ID\n\t\t* @param to target address that will receive the tokens\n\t\t* @param tokenId uint256 ID of the token to be transferred\n\t\t* @param _data bytes optional data to send along with the call\n\t\t* @return bool whether the call correctly returned the expected magic value\n\t\t*/\n\tfunction _checkOnERC721Received(\n\t\t\taddress from,\n\t\t\taddress to,\n\t\t\tuint256 tokenId,\n\t\t\tbytes memory _data\n\t) internal returns (bool) {\n\t\t\tif (!to.isContract()) {\n\t\t\t\t\treturn true;\n\t\t\t}\n\n\t\t\tbytes4 retval = IERC721Receiver(to).onERC721Received(\n\t\t\t\t\tmsg.sender,\n\t\t\t\t\tfrom,\n\t\t\t\t\ttokenId,\n\t\t\t\t\t_data\n\t\t\t);\n\t\t\treturn (retval == _ERC721_RECEIVED);\n\t}\n\n\t// @dev Private function to clear current approval of a given token ID\n\tfunction _clearApproval(uint256 tokenId) private {\n\t\t\tif (_tokenApprovals[tokenId] != address(0)) {\n\t\t\t\t\t_tokenApprovals[tokenId] = address(0);\n\t\t\t}\n\t}\n}\n\nabstract contract ERC721Enumerable is ERC165, ERC721 {\n\n\tusing SafeMath for uint256;\n\n\t// Mapping from owner to list of owned token IDs\n\tmapping(address => uint256[]) private _ownedTokens;\n\n\t// Mapping from token ID to index of the owner tokens list\n\tmapping(uint256 => uint256) private _ownedTokensIndex;\n\n\t// Array with all token ids, used for enumeration\n\tuint256[] private _allTokens;\n\n\t// Mapping from token id to position in the allTokens array\n\tmapping(uint256 => uint256) private _allTokensIndex;\n\n\tbytes4 private constant _INTERFACE_ID_ERC721_ENUMERABLE = 0x780e9d63;\n\n\t/*\n\t\t* 0x780e9d63 ===\n\t\t*     bytes4(keccak256('totalSupply()')) ^\n\t\t*     bytes4(keccak256('tokenOfOwnerByIndex(address,uint256)')) ^\n\t\t*     bytes4(keccak256('tokenByIndex(uint256)'))\n\t\t*/\n\n\t/**\n\t\t* @dev Constructor function\n\t\t*/\n\tconstructor() {\n\t\t\t// register the supported interface to conform to ERC721Enumerable via ERC165\n\t\t\t_registerInterface(_INTERFACE_ID_ERC721_ENUMERABLE);\n\t}\n\n\t/**\n\t\t* @dev Gets the token ID at a given index of the tokens list of the requested owner\n\t\t* @param owner address owning the tokens list to be accessed\n\t\t* @param index uint256 representing the index to be accessed of the requested tokens list\n\t\t* @return uint256 token ID at the given index of the tokens list owned by the requested address\n\t\t*/\n\tfunction tokenOfOwnerByIndex(address owner, uint256 index)\n\t\t\tpublic\n\t\t\tview\n\t\t\treturns (uint256)\n\t{\n\t\t\trequire(index < balanceOf(owner));\n\t\t\treturn _ownedTokens[owner][index];\n\t}\n\n\t/**\n\t\t* @dev Gets the total amount of tokens stored by the contract\n\t\t* @return uint256 representing the total amount of tokens\n\t\t*/\n\tfunction totalSupply() public view returns (uint256) {\n\t\t\treturn _allTokens.length;\n\t}\n\n\t/**\n\t\t* @dev Gets the token ID at a given index of all the tokens in this contract\n\t\t* Reverts if the index is greater or equal to the total number of tokens\n\t\t* @param index uint256 representing the index to be accessed of the tokens list\n\t\t* @return uint256 token ID at the given index of the tokens list\n\t\t*/\n\tfunction tokenByIndex(uint256 index) public view returns (uint256) {\n\t\t\trequire(index < totalSupply());\n\t\t\treturn _allTokens[index];\n\t}\n\n\t/**\n\t\t* @dev Internal function to transfer ownership of a given token ID to another address.\n\t\t* As opposed to transferFrom, this imposes no restrictions on msg.sender.\n\t\t* @param from current owner of the token\n\t\t* @param to address to receive the ownership of the given token ID\n\t\t* @param tokenId uint256 ID of the token to be transferred\n\t\t*/\n\tfunction _transferFrom(\n\t\t\taddress from,\n\t\t\taddress to,\n\t\t\tuint256 tokenId\n\t) internal override {\n\t\t\tsuper._transferFrom(from, to, tokenId);\n\n\t\t\t_removeTokenFromOwnerEnumeration(from, tokenId);\n\n\t\t\t_addTokenToOwnerEnumeration(to, tokenId);\n\t}\n\n\t/**\n\t\t* @dev Internal function to mint a new token\n\t\t* Reverts if the given token ID already exists\n\t\t* @param to address the beneficiary that will own the minted token\n\t\t* @param tokenId uint256 ID of the token to be minted\n\t\t*/\n\tfunction _mint(address to, uint256 tokenId) public virtual override returns(bool) {\n\t\t\tbool result = super._mint(to, tokenId);\n\t\t\t_addTokenToOwnerEnumeration(to, tokenId);\n\t\t\t_addTokenToAllTokensEnumeration(tokenId);\n\t\t\treturn result;\n\t}\n\n\t/**\n\t\t* @dev Gets the list of token IDs of the requested owner\n\t\t* @param owner address owning the tokens\n\t\t* @return uint256[] List of token IDs owned by the requested address\n\t\t*/\n\tfunction _tokensOfOwner(address owner)\n\t\t\tinternal\n\t\t\tview\n\t\t\treturns (uint256[] storage)\n\t{\n\t\t\treturn _ownedTokens[owner];\n\t}\n\n\t/**\n\t\t* @dev Private function to add a token to this extension's ownership-tracking data structures.\n\t\t* @param to address representing the new owner of the given token ID\n\t\t* @param tokenId uint256 ID of the token to be added to the tokens list of the given address\n\t\t*/\n\tfunction _addTokenToOwnerEnumeration(address to, uint256 tokenId) private {\n\t\t_ownedTokensIndex[tokenId] = _ownedTokens[to].length;\n\t\t_ownedTokens[to].push(tokenId);\n\t}\n\n\t/**\n\t\t* @dev Private function to add a token to this extension's token tracking data structures.\n\t\t* @param tokenId uint256 ID of the token to be added to the tokens list\n\t\t*/\n\tfunction _addTokenToAllTokensEnumeration(uint256 tokenId) private {\n\t\t_allTokensIndex[tokenId] = _allTokens.length;\n\t\t_allTokens.push(tokenId);\n\t}\n\n\t/**\n\t\t* @dev Private function to remove a token from this extension's ownership-tracking data structures. Note that\n\t\t* while the token is not assigned a new owner, the _ownedTokensIndex mapping is _not_ updated: this allows for\n\t\t* gas optimizations e.g. when performing a transfer operation (avoiding double writes).\n\t\t* This has O(1) time complexity, but alters the order of the _ownedTokens array.\n\t\t* @param from address representing the previous owner of the given token ID\n\t\t* @param tokenId uint256 ID of the token to be removed from the tokens list of the given address\n\t\t*/\n\tfunction _removeTokenFromOwnerEnumeration(address from, uint256 tokenId)\n\t\t\tprivate\n\t{\n\t\t// To prevent a gap in from's tokens array, we store the last token in the index of the token to delete, and\n\t\t// then delete the last slot (swap and pop).\n\n\t\tuint256 lastTokenIndex = _ownedTokens[from].length.sub(1);\n\t\tuint256 tokenIndex = _ownedTokensIndex[tokenId];\n\n\t\t// When the token to delete is the last token, the swap operation is unnecessary\n\t\tif (tokenIndex != lastTokenIndex) {\n\t\t\t\tuint256 lastTokenId = _ownedTokens[from][lastTokenIndex];\n\n\t\t\t\t_ownedTokens[from][tokenIndex] = lastTokenId; // Move the last token to the slot of the to-delete token\n\t\t\t\t_ownedTokensIndex[lastTokenId] = tokenIndex; // Update the moved token's index\n\t\t}\n\n\t\t// This also deletes the contents at the last position of the array\n\t\t_ownedTokens[from].pop();\n\n\t\t// Note that _ownedTokensIndex[tokenId] hasn't been cleared: it still points to the old slot (now occupied by\n\t\t// lastTokenId, or just over the end of the array if the token was the last one).\n\t}\n\n    /**\n     * @dev Private function to remove a token from this extension's token tracking data structures.\n     * This has O(1) time complexity, but alters the order of the _allTokens array.\n     * @param tokenId uint256 ID of the token to be removed from the tokens list\n     */\n    function _removeTokenFromAllTokensEnumeration(uint256 tokenId) private {\n\t\t\t// To prevent a gap in the tokens array, we store the last token in the index of the token to delete, and\n\t\t\t// then delete the last slot (swap and pop).\n\n\t\t\tuint256 lastTokenIndex = _allTokens.length.sub(1);\n\t\t\tuint256 tokenIndex = _allTokensIndex[tokenId];\n\n\t\t\t// When the token to delete is the last token, the swap operation is unnecessary. However, since this occurs so\n\t\t\t// rarely (when the last minted token is burnt) that we still do the swap here to avoid the gas cost of adding\n\t\t\t// an 'if' statement (like in _removeTokenFromOwnerEnumeration)\n\t\t\tuint256 lastTokenId = _allTokens[lastTokenIndex];\n\n\t\t\t_allTokens[tokenIndex] = lastTokenId; // Move the last token to the slot of the to-delete token\n\t\t\t_allTokensIndex[lastTokenId] = tokenIndex; // Update the moved token's index\n\n\t\t\t// This also deletes the contents at the last position of the array\n\t\t\t_allTokens.pop();\n\t\t\t_allTokensIndex[tokenId] = 0;\n    }\n}\n\ncontract ERC721Metadata is ERC721Enumerable {\n\t// TODO: Create private vars for token _name, _symbol, and _baseTokenURI (string)\n\tstring private _name;\n\tstring private _symbol;\n\tstring private _baseTokenURI;\n\n\t// TODO: create private mapping of tokenId's to token uri's called '_tokenURIs'\n\tmapping(uint256 => string) _tokenURIs;\n\n\tbytes4 private constant _INTERFACE_ID_ERC721_METADATA = 0x5b5e139f;\n\n\t/*\n\t\t* 0x5b5e139f ===\n\t\t*     bytes4(keccak256('name()')) ^\n\t\t*     bytes4(keccak256('symbol()')) ^\n\t\t*     bytes4(keccak256('tokenURI(uint256)'))\n\t\t*/\n\n\tconstructor(\n\t\t\tstring memory __name,\n\t\t\tstring memory __symbol,\n\t\t\tstring memory __baseTokenURI\n\t) {\n\t\t\t// TODO: set instance var values\n\t\t_name = __name;\n\t\t_symbol = __symbol;\n\t\t_baseTokenURI = __baseTokenURI;\n\t\t_registerInterface(_INTERFACE_ID_ERC721_METADATA);\n\t}\n\n\t// TODO: create external getter functions for name, symbol, and baseTokenURI\n\n\tfunction name() public view returns(string memory){\n\t\treturn _name;\n\t}\n\n\tfunction symbol() public view returns(string memory){\n\t\treturn _symbol;\n\t}\n\n\tfunction baseTokenURI() public view returns(string memory){\n\t\treturn _baseTokenURI;\n\t}\n\n\n\tfunction tokenURI(uint256 tokenId) external view returns (string memory) {\n\t\trequire(_exists(tokenId));\n\t\treturn string(abi.encodePacked(_baseTokenURI,_tokenURIs[tokenId]));\n\t}\n\n\t// TODO: Create an internal function to set the tokenURI of a specified tokenId\n\t// It should be the _baseTokenURI + the tokenId in string form\n\t// TIP #1: use strConcat() from the imported oraclizeAPI lib to set the complete token URI\n\t// TIP #2: you can also use uint2str() to convert a uint to a string\n\t// see https://github.com/oraclize/ethereum-api/blob/master/oraclizeAPI_0.5.sol for strConcat()\n\t// require the token exists before setting\n\n\tfunction setTokenURI(uint256 tokenId, string memory uri) whenNotPaused internal \n\t{\n\t\trequire(_exists(tokenId), \"Token does not exist\");\n\t\t_tokenURIs[tokenId] = uri;\n\t}\n\n}\n\n//  TODO's: Create CustomERC721Token contract that inherits from the ERC721Metadata contract. You can name this contract as you please\n//  1) Pass in appropriate values for the inherited ERC721Metadata contract\n//      - make the base token uri: https://s3-us-west-2.amazonaws.com/udacity-blockchain/capstone/\n//  2) create a public mint() that does the following:\n//      -can only be executed by the contract owner\n//      -takes in a 'to' address, tokenId, and tokenURI as parameters\n//      -returns a true boolean upon completion of the function\n//      -calls the superclass mint and setTokenURI functions\n\ncontract ERC721MintableComplete is ERC721Metadata {\n\n\tconstructor(string memory name, string memory symbol, string memory baseTokenURI) \n\tERC721Metadata(name, symbol,baseTokenURI)\n\t{\n\n\t}\n\n\tfunction _mint(address to, uint256 tokenId, string memory tokenURI) onlyOwner whenNotPaused public virtual\n\treturns(bool)\n\t{\n\t\tsuper._mint(to,tokenId);\n\t\tsuper.setTokenURI(tokenId,tokenURI);\n\t\treturn true;\n\t}\n\n}\n\n\n",
  "sourcePath": "/Users/alex/dev/schonetech/blockchain/Blockchain-Capstone/contracts/ERC721Mintable.sol",
  "compiler": {
    "name": "solc",
    "version": "0.8.11+commit.d7f03943.Emscripten.clang"
  },
  "schemaVersion": "3.4.4",
  "updatedAt": "2022-02-15T15:07:02.314Z",
  "devdoc": {
    "kind": "dev",
    "methods": {
      "_mint(address,uint256)": {
        "details": "Internal function to mint a new token Reverts if the given token ID already exists",
        "params": {
          "to": "address the beneficiary that will own the minted token",
          "tokenId": "uint256 ID of the token to be minted"
        }
      },
      "isApprovedForAll(address,address)": {
        "details": "Tells whether an operator is approved by a given owner",
        "params": {
          "operator": "operator address which you want to query the approval of",
          "owner": "owner address which you want to query the approval of"
        },
        "returns": {
          "_0": "bool whether the given operator is approved by the given owner"
        }
      },
      "setApprovalForAll(address,bool)": {
        "details": "Sets or unsets the approval of a given operator An operator is allowed to transfer all tokens of the sender on their behalf",
        "params": {
          "approved": "representing the status of the approval to be set",
          "to": "operator address to set the approval"
        }
      },
      "supportsInterface(bytes4)": {
        "details": "implement supportsInterface(bytes4) using a lookup table"
      },
      "tokenByIndex(uint256)": {
        "details": "Gets the token ID at a given index of all the tokens in this contract Reverts if the index is greater or equal to the total number of tokens",
        "params": {
          "index": "uint256 representing the index to be accessed of the tokens list"
        },
        "returns": {
          "_0": "uint256 token ID at the given index of the tokens list"
        }
      },
      "tokenOfOwnerByIndex(address,uint256)": {
        "details": "Gets the token ID at a given index of the tokens list of the requested owner",
        "params": {
          "index": "uint256 representing the index to be accessed of the requested tokens list",
          "owner": "address owning the tokens list to be accessed"
        },
        "returns": {
          "_0": "uint256 token ID at the given index of the tokens list owned by the requested address"
        }
      },
      "totalSupply()": {
        "details": "Gets the total amount of tokens stored by the contract",
        "returns": {
          "_0": "uint256 representing the total amount of tokens"
        }
      }
    },
    "version": 1
  },
  "userdoc": {
    "kind": "user",
    "methods": {},
    "version": 1
  }
}