{
  "contractName": "ERC721MintableComplete",
  "abi": [
    {
      "inputs": [
        {
          "internalType": "string",
          "name": "name",
          "type": "string"
        },
        {
          "internalType": "string",
          "name": "symbol",
          "type": "string"
        },
        {
          "internalType": "string",
          "name": "baseTokenURI",
          "type": "string"
        }
      ],
      "stateMutability": "nonpayable",
      "type": "constructor"
    },
    {
      "anonymous": false,
      "inputs": [
        {
          "indexed": true,
          "internalType": "address",
          "name": "owner",
          "type": "address"
        },
        {
          "indexed": true,
          "internalType": "address",
          "name": "approved",
          "type": "address"
        },
        {
          "indexed": true,
          "internalType": "uint256",
          "name": "tokenId",
          "type": "uint256"
        }
      ],
      "name": "Approval",
      "type": "event"
    },
    {
      "anonymous": false,
      "inputs": [
        {
          "indexed": true,
          "internalType": "address",
          "name": "owner",
          "type": "address"
        },
        {
          "indexed": true,
          "internalType": "address",
          "name": "operator",
          "type": "address"
        },
        {
          "indexed": false,
          "internalType": "bool",
          "name": "approved",
          "type": "bool"
        }
      ],
      "name": "ApprovalForAll",
      "type": "event"
    },
    {
      "anonymous": false,
      "inputs": [
        {
          "indexed": false,
          "internalType": "address",
          "name": "newOwner",
          "type": "address"
        }
      ],
      "name": "OwnershipTransferred",
      "type": "event"
    },
    {
      "anonymous": false,
      "inputs": [
        {
          "indexed": false,
          "internalType": "address",
          "name": "sender",
          "type": "address"
        }
      ],
      "name": "Paused",
      "type": "event"
    },
    {
      "anonymous": false,
      "inputs": [
        {
          "indexed": true,
          "internalType": "address",
          "name": "from",
          "type": "address"
        },
        {
          "indexed": true,
          "internalType": "address",
          "name": "to",
          "type": "address"
        },
        {
          "indexed": true,
          "internalType": "uint256",
          "name": "tokenId",
          "type": "uint256"
        }
      ],
      "name": "Transfer",
      "type": "event"
    },
    {
      "anonymous": false,
      "inputs": [
        {
          "indexed": false,
          "internalType": "address",
          "name": "sender",
          "type": "address"
        }
      ],
      "name": "Unpaused",
      "type": "event"
    },
    {
      "inputs": [],
      "name": "_owner",
      "outputs": [
        {
          "internalType": "address",
          "name": "",
          "type": "address"
        }
      ],
      "stateMutability": "view",
      "type": "function"
    },
    {
      "inputs": [
        {
          "internalType": "address",
          "name": "to",
          "type": "address"
        },
        {
          "internalType": "uint256",
          "name": "tokenId",
          "type": "uint256"
        }
      ],
      "name": "approve",
      "outputs": [],
      "stateMutability": "nonpayable",
      "type": "function"
    },
    {
      "inputs": [
        {
          "internalType": "address",
          "name": "owner",
          "type": "address"
        }
      ],
      "name": "balanceOf",
      "outputs": [
        {
          "internalType": "uint256",
          "name": "",
          "type": "uint256"
        }
      ],
      "stateMutability": "view",
      "type": "function"
    },
    {
      "inputs": [],
      "name": "baseTokenURI",
      "outputs": [
        {
          "internalType": "string",
          "name": "",
          "type": "string"
        }
      ],
      "stateMutability": "view",
      "type": "function"
    },
    {
      "inputs": [
        {
          "internalType": "uint256",
          "name": "tokenId",
          "type": "uint256"
        }
      ],
      "name": "getApproved",
      "outputs": [
        {
          "internalType": "address",
          "name": "",
          "type": "address"
        }
      ],
      "stateMutability": "view",
      "type": "function"
    },
    {
      "inputs": [
        {
          "internalType": "address",
          "name": "owner",
          "type": "address"
        },
        {
          "internalType": "address",
          "name": "operator",
          "type": "address"
        }
      ],
      "name": "isApprovedForAll",
      "outputs": [
        {
          "internalType": "bool",
          "name": "",
          "type": "bool"
        }
      ],
      "stateMutability": "view",
      "type": "function"
    },
    {
      "inputs": [],
      "name": "name",
      "outputs": [
        {
          "internalType": "string",
          "name": "",
          "type": "string"
        }
      ],
      "stateMutability": "view",
      "type": "function"
    },
    {
      "inputs": [
        {
          "internalType": "uint256",
          "name": "tokenId",
          "type": "uint256"
        }
      ],
      "name": "ownerOf",
      "outputs": [
        {
          "internalType": "address",
          "name": "",
          "type": "address"
        }
      ],
      "stateMutability": "view",
      "type": "function"
    },
    {
      "inputs": [
        {
          "internalType": "address",
          "name": "from",
          "type": "address"
        },
        {
          "internalType": "address",
          "name": "to",
          "type": "address"
        },
        {
          "internalType": "uint256",
          "name": "tokenId",
          "type": "uint256"
        }
      ],
      "name": "safeTransferFrom",
      "outputs": [],
      "stateMutability": "nonpayable",
      "type": "function"
    },
    {
      "inputs": [
        {
          "internalType": "address",
          "name": "from",
          "type": "address"
        },
        {
          "internalType": "address",
          "name": "to",
          "type": "address"
        },
        {
          "internalType": "uint256",
          "name": "tokenId",
          "type": "uint256"
        },
        {
          "internalType": "bytes",
          "name": "_data",
          "type": "bytes"
        }
      ],
      "name": "safeTransferFrom",
      "outputs": [],
      "stateMutability": "nonpayable",
      "type": "function"
    },
    {
      "inputs": [
        {
          "internalType": "address",
          "name": "to",
          "type": "address"
        },
        {
          "internalType": "bool",
          "name": "approved",
          "type": "bool"
        }
      ],
      "name": "setApprovalForAll",
      "outputs": [],
      "stateMutability": "nonpayable",
      "type": "function"
    },
    {
      "inputs": [
        {
          "internalType": "bool",
          "name": "paused",
          "type": "bool"
        }
      ],
      "name": "setPausedStatus",
      "outputs": [],
      "stateMutability": "nonpayable",
      "type": "function"
    },
    {
      "inputs": [
        {
          "internalType": "bytes4",
          "name": "interfaceId",
          "type": "bytes4"
        }
      ],
      "name": "supportsInterface",
      "outputs": [
        {
          "internalType": "bool",
          "name": "",
          "type": "bool"
        }
      ],
      "stateMutability": "view",
      "type": "function"
    },
    {
      "inputs": [],
      "name": "symbol",
      "outputs": [
        {
          "internalType": "string",
          "name": "",
          "type": "string"
        }
      ],
      "stateMutability": "view",
      "type": "function"
    },
    {
      "inputs": [
        {
          "internalType": "uint256",
          "name": "index",
          "type": "uint256"
        }
      ],
      "name": "tokenByIndex",
      "outputs": [
        {
          "internalType": "uint256",
          "name": "",
          "type": "uint256"
        }
      ],
      "stateMutability": "view",
      "type": "function"
    },
    {
      "inputs": [
        {
          "internalType": "address",
          "name": "owner",
          "type": "address"
        },
        {
          "internalType": "uint256",
          "name": "index",
          "type": "uint256"
        }
      ],
      "name": "tokenOfOwnerByIndex",
      "outputs": [
        {
          "internalType": "uint256",
          "name": "",
          "type": "uint256"
        }
      ],
      "stateMutability": "view",
      "type": "function"
    },
    {
      "inputs": [
        {
          "internalType": "uint256",
          "name": "tokenId",
          "type": "uint256"
        }
      ],
      "name": "tokenURI",
      "outputs": [
        {
          "internalType": "string",
          "name": "",
          "type": "string"
        }
      ],
      "stateMutability": "view",
      "type": "function"
    },
    {
      "inputs": [],
      "name": "totalSupply",
      "outputs": [
        {
          "internalType": "uint256",
          "name": "",
          "type": "uint256"
        }
      ],
      "stateMutability": "view",
      "type": "function"
    },
    {
      "inputs": [
        {
          "internalType": "address",
          "name": "from",
          "type": "address"
        },
        {
          "internalType": "address",
          "name": "to",
          "type": "address"
        },
        {
          "internalType": "uint256",
          "name": "tokenId",
          "type": "uint256"
        }
      ],
      "name": "transferFrom",
      "outputs": [],
      "stateMutability": "nonpayable",
      "type": "function"
    },
    {
      "inputs": [
        {
          "internalType": "address",
          "name": "newOwner",
          "type": "address"
        }
      ],
      "name": "transferOwnership",
      "outputs": [],
      "stateMutability": "nonpayable",
      "type": "function"
    },
    {
      "inputs": [
        {
          "internalType": "address",
          "name": "to",
          "type": "address"
        },
        {
          "internalType": "uint256",
          "name": "tokenId",
          "type": "uint256"
        }
      ],
      "name": "_mint",
      "outputs": [
        {
          "internalType": "bool",
          "name": "",
          "type": "bool"
        }
      ],
      "stateMutability": "nonpayable",
      "type": "function"
    },
    {
      "inputs": [
        {
          "internalType": "address",
          "name": "to",
          "type": "address"
        },
        {
          "internalType": "uint256",
          "name": "tokenId",
          "type": "uint256"
        },
        {
          "internalType": "string",
          "name": "tokenURI",
          "type": "string"
        }
      ],
      "name": "_mint",
      "outputs": [
        {
          "internalType": "bool",
          "name": "",
          "type": "bool"
        }
      ],
      "stateMutability": "nonpayable",
      "type": "function"
    }
  ],
  "bytecode": "0x60806040523480156200001157600080fd5b5060405162001b7e38038062001b7e833981016040819052620000349162000299565b600080546001600160a81b0319163360ff60a01b1916179055828282620000626301ffc9a760e01b620000e6565b620000746380ac58cd60e01b620000e6565b6200008663780e9d6360e01b620000e6565b82516200009b90600a90602086019062000126565b508151620000b190600b90602085019062000126565b508051620000c790600c90602084019062000126565b50620000da635b5e139f60e01b620000e6565b50505050505062000367565b6001600160e01b03198082161415620000fe57600080fd5b6001600160e01b0319166000908152600160208190526040909120805460ff19169091179055565b82805462000134906200032a565b90600052602060002090601f016020900481019282620001585760008555620001a3565b82601f106200017357805160ff1916838001178555620001a3565b82800160010185558215620001a3579182015b82811115620001a357825182559160200191906001019062000186565b50620001b1929150620001b5565b5090565b5b80821115620001b15760008155600101620001b6565b634e487b7160e01b600052604160045260246000fd5b600082601f830112620001f457600080fd5b81516001600160401b0380821115620002115762000211620001cc565b604051601f8301601f19908116603f011681019082821181831017156200023c576200023c620001cc565b816040528381526020925086838588010111156200025957600080fd5b600091505b838210156200027d57858201830151818301840152908201906200025e565b838211156200028f5760008385830101525b9695505050505050565b600080600060608486031215620002af57600080fd5b83516001600160401b0380821115620002c757600080fd5b620002d587838801620001e2565b94506020860151915080821115620002ec57600080fd5b620002fa87838801620001e2565b935060408601519150808211156200031157600080fd5b506200032086828701620001e2565b9150509250925092565b600181811c908216806200033f57607f821691505b602082108114156200036157634e487b7160e01b600052602260045260246000fd5b50919050565b61180780620003776000396000f3fe608060405234801561001057600080fd5b50600436106101115760003560e01c8062370c081461011657806301ffc9a71461012b57806306fdde031461016d578063081812fc14610182578063095ea7b3146101a257806318160ddd146101b557806323b872dd146101c75780632f745c59146101da57806342842e0e146101ed5780634e6ec247146102005780634f6ccce7146102135780636352211e1461022657806370a082311461023957806395d89b411461024c578063a22cb46514610254578063a987d4c614610267578063b2bdfa7b1461027a578063b88d4fde1461028d578063c87b56dd146102a0578063d547cfb7146102b3578063e985e9c5146102bb578063f2fde38b146102ce575b600080fd5b61012961012436600461125e565b6102e1565b005b61015861013936600461128f565b6001600160e01b03191660009081526001602052604090205460ff1690565b60405190151581526020015b60405180910390f35b6101756103d4565b60405161016491906112f9565b61019561019036600461130c565b610466565b6040516101649190611325565b6101296101b0366004611350565b610481565b6008545b604051908152602001610164565b6101296101d536600461137a565b610678565b6101b96101e8366004611350565b6106c5565b6101296101fb36600461137a565b610718565b61015861020e366004611350565b61075d565b6101b961022136600461130c565b6107c5565b61019561023436600461130c565b610800565b6101b96102473660046113b6565b61081b565b610175610836565b6101296102623660046113d1565b610845565b61015861027536600461148f565b6108f1565b600054610195906001600160a01b031681565b61012961029b3660046114f9565b610965565b6101756102ae36600461130c565b6109b5565b610175610a05565b6101586102c9366004611574565b610a14565b6101296102dc3660046113b6565b610a42565b6000546001600160a01b031633146103145760405162461bcd60e51b815260040161030b9061159e565b60405180910390fd5b60008054600160a01b83151581810260ff60a01b1984161790935560ff910416151514801590819061034f5750600054600160a01b900460ff165b156103d057600054600160a01b900460ff16156103a1577f62e78cea01bee320cd4e420270b5ea74000d11b0c9f74754ebdbfc544b05a258336040516103959190611325565b60405180910390a15050565b7f5db9ee0a495bf2e6ff9c91a7834c1ba4fdd244a5e8aa4e537bd38aeae4b073aa336040516103959190611325565b5050565b6060600a80546103e3906115e5565b80601f016020809104026020016040519081016040528092919081815260200182805461040f906115e5565b801561045c5780601f106104315761010080835404028352916020019161045c565b820191906000526020600020905b81548152906001019060200180831161043f57829003601f168201915b5050505050905090565b6000908152600360205260409020546001600160a01b031690565b600054600160a01b900460ff16156104ab5760405162461bcd60e51b815260040161030b90611620565b60006104b682610800565b9050806001600160a01b0316836001600160a01b031614156105285760405162461bcd60e51b815260206004820152602560248201527f746f20616464726573732063616e2774206265207468652063757272656e742060448201526437bbb732b960d91b606482015260840161030b565b6001600160a01b03831661058d5760405162461bcd60e51b815260206004820152602660248201527f746f2061646472657373206e6565647320746f20626520612076616c6964206160448201526564647265737360d01b606482015260840161030b565b6000546001600160a01b03163314806105ab57506105ab8133610a14565b61061c5760405162461bcd60e51b815260206004820152603c60248201527f6d73672e73656e646572206973206e6569746865722074686520636f6e74726160448201527b18dd081bdddb995c881b9bdc88185c1c1bdd995908199bdc88185b1b60221b606482015260840161030b565b60008281526003602052604080822080546001600160a01b0319166001600160a01b0387811691821790925591518593918516917f8c5be1e5ebec7d5bd14f71427d1e84f3dd0314c0f7b2291e5b200ac8c7c3b92591a4505050565b600054600160a01b900460ff16156106a25760405162461bcd60e51b815260040161030b90611620565b6106ac3382610b96565b6106b557600080fd5b6106c0838383610bf5565b505050565b60006106d08361081b565b82106106db57600080fd5b6001600160a01b038316600090815260066020526040902080548390811061070557610705611657565b9060005260206000200154905092915050565b600054600160a01b900460ff16156107425760405162461bcd60e51b815260040161030b90611620565b6106c083838360405180602001604052806000815250610965565b60008061076a8484610c14565b90506107768484610d25565b6107be83600880546000838152600960205260408120829055600182018355919091527ff3f7a9fe364faab93b216da50a3214154f22a0a2b415b23a84c8169e8b636ee30155565b9392505050565b60006107d060085490565b82106107db57600080fd5b600882815481106107ee576107ee611657565b90600052602060002001549050919050565b6000908152600260205260409020546001600160a01b031690565b6001600160a01b031660009081526004602052604090205490565b6060600b80546103e3906115e5565b600054600160a01b900460ff161561086f5760405162461bcd60e51b815260040161030b90611620565b6001600160a01b03821633141561088557600080fd5b3360008181526005602090815260408083206001600160a01b03871680855290835292819020805460ff191686151590811790915590519081529192917f17307eab39ab6107e8899845ad3d59bd9653f200f220920489ca2b5937696c31910160405180910390a35050565b600080546001600160a01b0316331461091c5760405162461bcd60e51b815260040161030b9061159e565b600054600160a01b900460ff16156109465760405162461bcd60e51b815260040161030b90611620565b610950848461075d565b5061095b8383610d63565b5060019392505050565b600054600160a01b900460ff161561098f5760405162461bcd60e51b815260040161030b90611620565b61099a848484610678565b6109a684848484610df8565b6109af57600080fd5b50505050565b60606109c082610ea7565b6109c957600080fd5b600c600d60008481526020019081526020016000206040516020016109ef929190611707565b6040516020818303038152906040529050919050565b6060600c80546103e3906115e5565b6001600160a01b03918216600090815260056020908152604080832093909416825291909152205460ff1690565b6000546001600160a01b03163314610a6c5760405162461bcd60e51b815260040161030b9061159e565b6001600160a01b038116610ad05760405162461bcd60e51b815260206004820152602560248201527f4e6577206f776e6572206e6565647320746f20626520612076616c6964206164604482015264647265737360d81b606482015260840161030b565b6000546001600160a01b0382811691161415610b405760405162461bcd60e51b815260206004820152602960248201527f4e6577206f776e6572206e6565647320746f206265206120646966666572656e60448201526874206164647265737360b81b606482015260840161030b565b600080546001600160a01b0319166001600160a01b0383161790556040517f04dba622d284ed0014ee4b9a6a68386be1a4c08a4913ae272de89199cc68616390610b8b908390611325565b60405180910390a150565b600080610ba283610800565b9050806001600160a01b0316846001600160a01b03161480610bdd5750836001600160a01b0316610bd284610466565b6001600160a01b0316145b80610bed5750610bed8185610a14565b949350505050565b610c00838383610ec4565b610c0a8382611004565b6106c08282610d25565b6000610c1f82610ea7565b15610c655760405162461bcd60e51b8152602060048201526016602482015275746f6b656e496420616c72656164792065786973747360501b604482015260640161030b565b6001600160a01b038316610cb65760405162461bcd60e51b815260206004820152601860248201527719da5d995b881859191c995cdcc81a5cc81a5b9d985b1a5960421b604482015260640161030b565b600082815260026020908152604080832080546001600160a01b0319166001600160a01b038816908117909155835260049091529020805460010190556000805460405184926001600160a01b038088169316916000805160206117b28339815191529190a450600192915050565b6001600160a01b0390911660009081526006602081815260408084208054868652600784529185208290559282526001810183559183529091200155565b600054600160a01b900460ff1615610d8d5760405162461bcd60e51b815260040161030b90611620565b610d9682610ea7565b610dd95760405162461bcd60e51b8152602060048201526014602482015273151bdad95b88191bd95cc81b9bdd08195e1a5cdd60621b604482015260640161030b565b6000828152600d6020908152604090912082516106c0928401906111b0565b60006001600160a01b0384163b610e1157506001610bed565b604051630a85bd0160e11b81526000906001600160a01b0386169063150b7a0290610e469033908a908990899060040161171c565b6020604051808303816000875af1158015610e65573d6000803e3d6000fd5b505050506040513d601f19601f82011682018060405250810190610e899190611759565b6001600160e01b031916630a85bd0160e11b14915050949350505050565b6000908152600260205260409020546001600160a01b0316151590565b6000610ecf82610800565b9050806001600160a01b0316846001600160a01b031614610f2c5760405162461bcd60e51b815260206004820152601760248201527627b7363c9037bbb732b91031b0b7103a3930b739b332b960491b604482015260640161030b565b6001600160a01b038316610f7f5760405162461bcd60e51b815260206004820152601a602482015279746f206d75737420626520612076616c6964206164647265737360301b604482015260640161030b565b610f8882611112565b6001600160a01b0384166000908152600460205260409020610fa99061114f565b6001600160a01b03838116600081815260046020908152604080832080546001019055868352600290915280822080546001600160a01b031916841790555185938816916000805160206117b283398151915291a450505050565b6001600160a01b0382166000908152600660205260408120546110289060016111a4565b6000838152600760205260409020549091508082146110cf576001600160a01b038416600090815260066020526040812080548490811061106b5761106b611657565b906000526020600020015490508060066000876001600160a01b03166001600160a01b0316815260200190815260200160002083815481106110af576110af611657565b600091825260208083209091019290925591825260079052604090208190555b6001600160a01b03841660009081526006602052604090208054806110f6576110f6611776565b6001900381819060005260206000200160009055905550505050565b6000818152600360205260409020546001600160a01b03161561114c57600081815260036020526040902080546001600160a01b03191690555b50565b80548061119c5760405162461bcd60e51b815260206004820152601b60248201527a436f756e7465723a2064656372656d656e74206f766572666c6f7760281b604482015260640161030b565b600019019055565b60006107be828461178c565b8280546111bc906115e5565b90600052602060002090601f0160209004810192826111de5760008555611224565b82601f106111f757805160ff1916838001178555611224565b82800160010185558215611224579182015b82811115611224578251825591602001919060010190611209565b50611230929150611234565b5090565b5b808211156112305760008155600101611235565b8035801515811461125957600080fd5b919050565b60006020828403121561127057600080fd5b6107be82611249565b6001600160e01b03198116811461114c57600080fd5b6000602082840312156112a157600080fd5b81356107be81611279565b6000815180845260005b818110156112d2576020818501810151868301820152016112b6565b818111156112e4576000602083870101525b50601f01601f19169290920160200192915050565b6020815260006107be60208301846112ac565b60006020828403121561131e57600080fd5b5035919050565b6001600160a01b0391909116815260200190565b80356001600160a01b038116811461125957600080fd5b6000806040838503121561136357600080fd5b61136c83611339565b946020939093013593505050565b60008060006060848603121561138f57600080fd5b61139884611339565b92506113a660208501611339565b9150604084013590509250925092565b6000602082840312156113c857600080fd5b6107be82611339565b600080604083850312156113e457600080fd5b6113ed83611339565b91506113fb60208401611249565b90509250929050565b634e487b7160e01b600052604160045260246000fd5b60006001600160401b038084111561143457611434611404565b604051601f8501601f19908116603f0116810190828211818310171561145c5761145c611404565b8160405280935085815286868601111561147557600080fd5b858560208301376000602087830101525050509392505050565b6000806000606084860312156114a457600080fd5b6114ad84611339565b92506020840135915060408401356001600160401b038111156114cf57600080fd5b8401601f810186136114e057600080fd5b6114ef8682356020840161141a565b9150509250925092565b6000806000806080858703121561150f57600080fd5b61151885611339565b935061152660208601611339565b92506040850135915060608501356001600160401b0381111561154857600080fd5b8501601f8101871361155957600080fd5b6115688782356020840161141a565b91505092959194509250565b6000806040838503121561158757600080fd5b61159083611339565b91506113fb60208401611339565b60208082526027908201527f4f6e6c79206f776e657220616c6c6f776420746f207472616e73666572206f7760408201526606e6572736869760cc1b606082015260800190565b600181811c908216806115f957607f821691505b6020821081141561161a57634e487b7160e01b600052602260045260246000fd5b50919050565b6020808252601d908201527f436f6e7472616374206e6565647320746f20626520756e706175736564000000604082015260600190565b634e487b7160e01b600052603260045260246000fd5b8054600090600181811c908083168061168757607f831692505b60208084108214156116a957634e487b7160e01b600052602260045260246000fd5b8180156116bd57600181146116ce576116fb565b60ff198616895284890196506116fb565b60008881526020902060005b868110156116f35781548b8201529085019083016116da565b505084890196505b50505050505092915050565b6000610bed611716838661166d565b8461166d565b6001600160a01b038581168252841660208201526040810183905260806060820181905260009061174f908301846112ac565b9695505050505050565b60006020828403121561176b57600080fd5b81516107be81611279565b634e487b7160e01b600052603160045260246000fd5b6000828210156117ac57634e487b7160e01b600052601160045260246000fd5b50039056feddf252ad1be2c89b69c2b068fc378daa952ba7f163c4a11628f55a4df523b3efa2646970667358221220bfcaeef5ec62d5807bae9a74c3928f09af83048f40e75fe11fab0085d60885bd64736f6c634300080b0033",
  "immutableReferences": {},
  "source": "pragma solidity ^0.8.11;\n\nimport \"@openzeppelin/contracts/utils/Address.sol\";\nimport \"@openzeppelin/contracts/utils/Counters.sol\";\nimport \"@openzeppelin/contracts/utils/Strings.sol\";\nimport \"@openzeppelin/contracts/utils/math/SafeMath.sol\";\nimport \"@openzeppelin/contracts/token/ERC721/IERC721Receiver.sol\";\n\nabstract contract Ownable {\n\n    address public _owner;\n\n    event OwnershipTransferred(address newOwner);\n\n    modifier onlyOwner() {\n\t\t\trequire(\n\t\t\t\tmsg.sender == _owner,\n\t\t\t\t\"Only owner allowd to transfer ownership\"\n\t\t\t);\n\t\t\t_;\n    }\n\n    constructor() {\n\t\t\t_owner = msg.sender;\n    }\n\n    function transferOwnership(address newOwner) public onlyOwner {\n\t\t\trequire(\n\t\t\t\t\tnewOwner != address(0),\n\t\t\t\t\t\"New owner needs to be a valid address\"\n\t\t\t);\n\t\t\trequire(\n\t\t\t\t\tnewOwner != _owner,\n\t\t\t\t\t\"New owner needs to be a different address\"\n\t\t\t);\n\t\t\t_owner = newOwner;\n\t\t\temit OwnershipTransferred(newOwner);\n    }\n}\n\n//  TODO's: Create a Pausable contract that inherits from the Ownable contract\n//  1) create a private '_paused' variable of type bool\n//  2) create a public setter using the inherited onlyOwner modifier\n//  3) create an internal constructor that sets the _paused variable to false\n//  4) create 'whenNotPaused' & 'paused' modifier that throws in the appropriate situation\n//  5) create a Paused & Unpaused event that emits the address that triggered the event\n\nabstract contract Pausable is Ownable {\n\n\tbool private _paused;\n\n\tevent Paused(address sender);\n\tevent Unpaused(address sender);\n\n\tmodifier whenPaused(){\n\t\trequire(_paused == true, \"Contract needs to be paused\");\n\t\t_;\n\t}\n\n\tmodifier whenNotPaused(){\n\t\trequire(_paused == false, \"Contract needs to be unpaused\");\n\t\t_;\n\t}\n\n\tconstructor () {\n\t\t_paused = false;\n\t}\n\n\tfunction setPausedStatus(bool paused) onlyOwner public {\n\t\tbool differs = _paused != paused;\n\t\t_paused = paused;\n\t\tif (differs && _paused){\n\t\t\tif (_paused) {\n\t\t\t\temit Paused(msg.sender);\n\t\t\t}\n\t\t\telse {\n\t\t\t\temit Unpaused(msg.sender);\n\t\t\t}\n\t\t}\n\t}\n\n}\n\nabstract contract ERC165 is Pausable {\n\n\tbytes4 private constant _INTERFACE_ID_ERC165 = 0x01ffc9a7;\n\t/*\t\n\t\t* 0x01ffc9a7 ===\n\t\t*     bytes4(keccak256('supportsInterface(bytes4)'))\n\t\t*/\n\n\t/**\n\t\t* @dev a mapping of interface id to whether or not it's supported\n\t\t*/\n\tmapping(bytes4 => bool) private _supportedInterfaces;\n\n\t\n\n\t/**\n\t\t* @dev A contract implementing SupportsInterfaceWithLookup\n\t\t* implement ERC165 itself\n\t\t*/\n\tconstructor() {\n\t\t_registerInterface(_INTERFACE_ID_ERC165);\n\t}\n\n\t/**\n\t\t* @dev implement supportsInterface(bytes4) using a lookup table\n\t\t*/\n\tfunction supportsInterface(bytes4 interfaceId)\n\texternal\n\tview\n\treturns (bool)\n\t{\n\t\treturn _supportedInterfaces[interfaceId];\n\t}\n\n\t/**\n\t\t* @dev internal method for registering an interface\n\t\t*/\n\tfunction _registerInterface(bytes4 interfaceId) internal {\n\t\trequire(interfaceId != 0xffffffff);\n\t\t_supportedInterfaces[interfaceId] = true;\n\t}\n}\n\nabstract contract ERC721 is Pausable, ERC165 {\n    \n\tevent Transfer(\n\t\taddress indexed from,\n\t\taddress indexed to,\n\t\tuint256 indexed tokenId\n\t);\n\n\tevent Approval(\n\t\taddress indexed owner,\n\t\taddress indexed approved,\n\t\tuint256 indexed tokenId\n\t);\n\n\tevent ApprovalForAll(\n\t\taddress indexed owner,\n\t\taddress indexed operator,\n\t\tbool approved\n\t);\n\n\tusing SafeMath for uint256;\n\tusing Address for address;\n\tusing Counters for Counters.Counter;\n\n\t// Equals to `bytes4(keccak256(\"onERC721Received(address,address,uint256,bytes)\"))`\n\t// which can be also obtained as `IERC721Receiver(0).onERC721Received.selector`\n\tbytes4 private constant _ERC721_RECEIVED = 0x150b7a02;\n\n\t// Mapping from token ID to owner\n\tmapping(uint256 => address) private _tokenOwner;\n\n\t// Mapping from token ID to approved address\n\tmapping(uint256 => address) private _tokenApprovals;\n\n\t// Mapping from owner to number of owned token\n\t// IMPORTANT: this mapping uses Counters lib which is used to protect overflow when incrementing/decrementing a uint\n\t// use the following functions when interacting with Counters: increment(), decrement(), and current() to get the value\n\t// see: https://github.com/OpenZeppelin/openzeppelin-solidity/blob/master/contracts/drafts/Counters.sol\n\tmapping(address => Counters.Counter) private _ownedTokensCount;\n\n\t// Mapping from owner to operator approvals\n\tmapping(address => mapping(address => bool)) private _operatorApprovals;\n\n\tbytes4 private constant _INTERFACE_ID_ERC721 = 0x80ac58cd;\n\n\tconstructor() {\n\t\t// register the supported interfaces to conform to ERC721 via ERC165\n\t\t_registerInterface(_INTERFACE_ID_ERC721);\n\t}\n\n\tfunction balanceOf(address owner) public view returns (uint256) {\n\t\treturn _ownedTokensCount[owner].current();\n\t}\n\n\tfunction ownerOf(uint256 tokenId) public view returns (address) {\n\t\treturn _tokenOwner[tokenId];\n\t}\n\n\t//    @dev Approves another address to transfer the given token ID\n\tfunction approve(address to, uint256 tokenId) whenNotPaused public {\n\t\t// TODO require the given address to not be the owner of the tokenId\n\t\t// TODO require the msg sender to be the owner of the contract or isApprovedForAll() to be true\n\t\t// TODO add 'to' address to token approvals\n\t\t// TODO emit Approval Event\n\t\taddress owner = ownerOf(tokenId);\n\t\trequire(to != owner, \"to address can't be the current owner\");\n\t\trequire(to != address(0), \"to address needs to be a valid address\");\n\t\trequire(msg.sender == _owner || isApprovedForAll(owner,msg.sender), \"msg.sender is neither the contract owner nor appoved for all\");\n\t\t_tokenApprovals[tokenId] = to;\n\t\temit Approval(owner,to,tokenId);\n\t}\n\n\tfunction getApproved(uint256 tokenId) public view returns (address) {\n\t\t// TODO return token approval if it exists\n\t\treturn _tokenApprovals[tokenId];\n\t}\n\n\t/**\n\t\t* @dev Sets or unsets the approval of a given operator\n\t\t* An operator is allowed to transfer all tokens of the sender on their behalf\n\t\t* @param to operator address to set the approval\n\t\t* @param approved representing the status of the approval to be set\n\t\t*/\n\tfunction setApprovalForAll(address to, bool approved) whenNotPaused public {\n\t\t\trequire(to != msg.sender);\n\t\t\t_operatorApprovals[msg.sender][to] = approved;\n\t\t\temit ApprovalForAll(msg.sender, to, approved);\n\t}\n\n\t/**\n\t\t* @dev Tells whether an operator is approved by a given owner\n\t\t* @param owner owner address which you want to query the approval of\n\t\t* @param operator operator address which you want to query the approval of\n\t\t* @return bool whether the given operator is approved by the given owner\n\t\t*/\n\tfunction isApprovedForAll(address owner, address operator)\n\t\t\tpublic\n\t\t\tview\n\t\t\treturns (bool)\n\t{\n\t\t\treturn _operatorApprovals[owner][operator];\n\t}\n\n\tfunction transferFrom(\n\t\t\taddress from,\n\t\t\taddress to,\n\t\t\tuint256 tokenId\n\t) whenNotPaused public {\n\t\t\trequire(_isApprovedOrOwner(msg.sender, tokenId));\n\n\t\t\t_transferFrom(from, to, tokenId);\n\t}\n\n\tfunction safeTransferFrom(\n\t\t\taddress from,\n\t\t\taddress to,\n\t\t\tuint256 tokenId\n\t) public whenNotPaused {\n\t\t\tsafeTransferFrom(from, to, tokenId, \"\");\n\t}\n\n\tfunction safeTransferFrom(\n\t\t\taddress from,\n\t\t\taddress to,\n\t\t\tuint256 tokenId,\n\t\t\tbytes memory _data\n\t) whenNotPaused public {\n\t\t\ttransferFrom(from, to, tokenId);\n\t\t\trequire(_checkOnERC721Received(from, to, tokenId, _data));\n\t}\n\n\t/**\n\t\t* @dev Returns whether the specified token exists\n\t\t* @param tokenId uint256 ID of the token to query the existence of\n\t\t* @return bool whether the token exists\n\t\t*/\n\tfunction _exists(uint256 tokenId) internal view returns (bool) {\n\t\taddress owner = _tokenOwner[tokenId];\n\t\treturn owner != address(0);\n\t}\n\n\t/**\n\t\t* @dev Returns whether the given spender can transfer a given token ID\n\t\t* @param spender address of the spender to query\n\t\t* @param tokenId uint256 ID of the token to be transferred\n\t\t* @return bool whether the msg.sender is approved for the given token ID,\n\t\t* is an operator of the owner, or is the owner of the token\n\t\t*/\n\tfunction _isApprovedOrOwner(address spender, uint256 tokenId)\n\t\t\tinternal\n\t\t\tview\n\t\t\treturns (bool)\n\t{\n\t\t\taddress owner = ownerOf(tokenId);\n\t\t\treturn (spender == owner ||\n\t\t\t\t\tgetApproved(tokenId) == spender ||\n\t\t\t\t\tisApprovedForAll(owner, spender));\n\t}\n\n\t// @dev Internal function to mint a new token\n\t// TIP: remember the functions to use for Counters. you can refresh yourself with the link above\n\tfunction _mint(address to, uint256 tokenId) public virtual returns(bool) {\n\t\t\t// TODO revert if given tokenId already exists or given address is invalid\n\t\t\t// TODO mint tokenId to given address & increase token count of owner\n\t\t\t// TODO emit Transfer event\n\t\trequire(_exists(tokenId) == false, \"tokenId already exists\");\n\t\trequire(to != address(0), \"given address is invalid\");\n\t\t_tokenOwner[tokenId] = to;\n\t\t_ownedTokensCount[to].increment();\n\t\temit Transfer(_owner,to,tokenId);\n\t\treturn true;\n\t}\n\n\t// @dev Internal function to transfer ownership of a given token ID to another address.\n\t// TIP: remember the functions to use for Counters. you can refresh yourself with the link above\n\tfunction _transferFrom(\n\t\t\taddress from,\n\t\t\taddress to,\n\t\t\tuint256 tokenId\n\t) virtual internal  {\n\t\t// TODO: require from address is the owner of the given token\n\t\t// TODO: require token is being transfered to valid address\n\t\t// TODO: clear approval\n\t\t// TODO: update token counts & transfer ownership of the token ID\n\t\t// TODO: emit correct event\n\t\taddress owner = ownerOf(tokenId);\n\t\trequire(from == owner, \"Only owner can transfer\");\n\t\trequire(to != address(0), \"to must be a valid address\");\n\t\t_clearApproval(tokenId);\n\t\t_ownedTokensCount[from].decrement();\n\t\t_ownedTokensCount[to].increment();\n\t\t_tokenOwner[tokenId] = to;\n\t\temit Transfer(from,to,tokenId);\n\t}\n\n\t/**\n\t\t* @dev Internal function to invoke `onERC721Received` on a target address\n\t\t* The call is not executed if the target address is not a contract\n\t\t* @param from address representing the previous owner of the given token ID\n\t\t* @param to target address that will receive the tokens\n\t\t* @param tokenId uint256 ID of the token to be transferred\n\t\t* @param _data bytes optional data to send along with the call\n\t\t* @return bool whether the call correctly returned the expected magic value\n\t\t*/\n\tfunction _checkOnERC721Received(\n\t\t\taddress from,\n\t\t\taddress to,\n\t\t\tuint256 tokenId,\n\t\t\tbytes memory _data\n\t) internal returns (bool) {\n\t\t\tif (!to.isContract()) {\n\t\t\t\t\treturn true;\n\t\t\t}\n\n\t\t\tbytes4 retval = IERC721Receiver(to).onERC721Received(\n\t\t\t\t\tmsg.sender,\n\t\t\t\t\tfrom,\n\t\t\t\t\ttokenId,\n\t\t\t\t\t_data\n\t\t\t);\n\t\t\treturn (retval == _ERC721_RECEIVED);\n\t}\n\n\t// @dev Private function to clear current approval of a given token ID\n\tfunction _clearApproval(uint256 tokenId) private {\n\t\t\tif (_tokenApprovals[tokenId] != address(0)) {\n\t\t\t\t\t_tokenApprovals[tokenId] = address(0);\n\t\t\t}\n\t}\n}\n\nabstract contract ERC721Enumerable is ERC165, ERC721 {\n\n\tusing SafeMath for uint256;\n\n\t// Mapping from owner to list of owned token IDs\n\tmapping(address => uint256[]) private _ownedTokens;\n\n\t// Mapping from token ID to index of the owner tokens list\n\tmapping(uint256 => uint256) private _ownedTokensIndex;\n\n\t// Array with all token ids, used for enumeration\n\tuint256[] private _allTokens;\n\n\t// Mapping from token id to position in the allTokens array\n\tmapping(uint256 => uint256) private _allTokensIndex;\n\n\tbytes4 private constant _INTERFACE_ID_ERC721_ENUMERABLE = 0x780e9d63;\n\n\t/*\n\t\t* 0x780e9d63 ===\n\t\t*     bytes4(keccak256('totalSupply()')) ^\n\t\t*     bytes4(keccak256('tokenOfOwnerByIndex(address,uint256)')) ^\n\t\t*     bytes4(keccak256('tokenByIndex(uint256)'))\n\t\t*/\n\n\t/**\n\t\t* @dev Constructor function\n\t\t*/\n\tconstructor() {\n\t\t\t// register the supported interface to conform to ERC721Enumerable via ERC165\n\t\t\t_registerInterface(_INTERFACE_ID_ERC721_ENUMERABLE);\n\t}\n\n\t/**\n\t\t* @dev Gets the token ID at a given index of the tokens list of the requested owner\n\t\t* @param owner address owning the tokens list to be accessed\n\t\t* @param index uint256 representing the index to be accessed of the requested tokens list\n\t\t* @return uint256 token ID at the given index of the tokens list owned by the requested address\n\t\t*/\n\tfunction tokenOfOwnerByIndex(address owner, uint256 index)\n\t\t\tpublic\n\t\t\tview\n\t\t\treturns (uint256)\n\t{\n\t\t\trequire(index < balanceOf(owner));\n\t\t\treturn _ownedTokens[owner][index];\n\t}\n\n\t/**\n\t\t* @dev Gets the total amount of tokens stored by the contract\n\t\t* @return uint256 representing the total amount of tokens\n\t\t*/\n\tfunction totalSupply() public view returns (uint256) {\n\t\t\treturn _allTokens.length;\n\t}\n\n\t/**\n\t\t* @dev Gets the token ID at a given index of all the tokens in this contract\n\t\t* Reverts if the index is greater or equal to the total number of tokens\n\t\t* @param index uint256 representing the index to be accessed of the tokens list\n\t\t* @return uint256 token ID at the given index of the tokens list\n\t\t*/\n\tfunction tokenByIndex(uint256 index) public view returns (uint256) {\n\t\t\trequire(index < totalSupply());\n\t\t\treturn _allTokens[index];\n\t}\n\n\t/**\n\t\t* @dev Internal function to transfer ownership of a given token ID to another address.\n\t\t* As opposed to transferFrom, this imposes no restrictions on msg.sender.\n\t\t* @param from current owner of the token\n\t\t* @param to address to receive the ownership of the given token ID\n\t\t* @param tokenId uint256 ID of the token to be transferred\n\t\t*/\n\tfunction _transferFrom(\n\t\t\taddress from,\n\t\t\taddress to,\n\t\t\tuint256 tokenId\n\t) internal override {\n\t\t\tsuper._transferFrom(from, to, tokenId);\n\n\t\t\t_removeTokenFromOwnerEnumeration(from, tokenId);\n\n\t\t\t_addTokenToOwnerEnumeration(to, tokenId);\n\t}\n\n\t/**\n\t\t* @dev Internal function to mint a new token\n\t\t* Reverts if the given token ID already exists\n\t\t* @param to address the beneficiary that will own the minted token\n\t\t* @param tokenId uint256 ID of the token to be minted\n\t\t*/\n\tfunction _mint(address to, uint256 tokenId) public virtual override returns(bool) {\n\t\t\tbool result = super._mint(to, tokenId);\n\t\t\t_addTokenToOwnerEnumeration(to, tokenId);\n\t\t\t_addTokenToAllTokensEnumeration(tokenId);\n\t\t\treturn result;\n\t}\n\n\t/**\n\t\t* @dev Gets the list of token IDs of the requested owner\n\t\t* @param owner address owning the tokens\n\t\t* @return uint256[] List of token IDs owned by the requested address\n\t\t*/\n\tfunction _tokensOfOwner(address owner)\n\t\t\tinternal\n\t\t\tview\n\t\t\treturns (uint256[] storage)\n\t{\n\t\t\treturn _ownedTokens[owner];\n\t}\n\n\t/**\n\t\t* @dev Private function to add a token to this extension's ownership-tracking data structures.\n\t\t* @param to address representing the new owner of the given token ID\n\t\t* @param tokenId uint256 ID of the token to be added to the tokens list of the given address\n\t\t*/\n\tfunction _addTokenToOwnerEnumeration(address to, uint256 tokenId) private {\n\t\t_ownedTokensIndex[tokenId] = _ownedTokens[to].length;\n\t\t_ownedTokens[to].push(tokenId);\n\t}\n\n\t/**\n\t\t* @dev Private function to add a token to this extension's token tracking data structures.\n\t\t* @param tokenId uint256 ID of the token to be added to the tokens list\n\t\t*/\n\tfunction _addTokenToAllTokensEnumeration(uint256 tokenId) private {\n\t\t_allTokensIndex[tokenId] = _allTokens.length;\n\t\t_allTokens.push(tokenId);\n\t}\n\n\t/**\n\t\t* @dev Private function to remove a token from this extension's ownership-tracking data structures. Note that\n\t\t* while the token is not assigned a new owner, the _ownedTokensIndex mapping is _not_ updated: this allows for\n\t\t* gas optimizations e.g. when performing a transfer operation (avoiding double writes).\n\t\t* This has O(1) time complexity, but alters the order of the _ownedTokens array.\n\t\t* @param from address representing the previous owner of the given token ID\n\t\t* @param tokenId uint256 ID of the token to be removed from the tokens list of the given address\n\t\t*/\n\tfunction _removeTokenFromOwnerEnumeration(address from, uint256 tokenId)\n\t\t\tprivate\n\t{\n\t\t// To prevent a gap in from's tokens array, we store the last token in the index of the token to delete, and\n\t\t// then delete the last slot (swap and pop).\n\n\t\tuint256 lastTokenIndex = _ownedTokens[from].length.sub(1);\n\t\tuint256 tokenIndex = _ownedTokensIndex[tokenId];\n\n\t\t// When the token to delete is the last token, the swap operation is unnecessary\n\t\tif (tokenIndex != lastTokenIndex) {\n\t\t\t\tuint256 lastTokenId = _ownedTokens[from][lastTokenIndex];\n\n\t\t\t\t_ownedTokens[from][tokenIndex] = lastTokenId; // Move the last token to the slot of the to-delete token\n\t\t\t\t_ownedTokensIndex[lastTokenId] = tokenIndex; // Update the moved token's index\n\t\t}\n\n\t\t// This also deletes the contents at the last position of the array\n\t\t_ownedTokens[from].pop();\n\n\t\t// Note that _ownedTokensIndex[tokenId] hasn't been cleared: it still points to the old slot (now occupied by\n\t\t// lastTokenId, or just over the end of the array if the token was the last one).\n\t}\n\n    /**\n     * @dev Private function to remove a token from this extension's token tracking data structures.\n     * This has O(1) time complexity, but alters the order of the _allTokens array.\n     * @param tokenId uint256 ID of the token to be removed from the tokens list\n     */\n    function _removeTokenFromAllTokensEnumeration(uint256 tokenId) private {\n\t\t\t// To prevent a gap in the tokens array, we store the last token in the index of the token to delete, and\n\t\t\t// then delete the last slot (swap and pop).\n\n\t\t\tuint256 lastTokenIndex = _allTokens.length.sub(1);\n\t\t\tuint256 tokenIndex = _allTokensIndex[tokenId];\n\n\t\t\t// When the token to delete is the last token, the swap operation is unnecessary. However, since this occurs so\n\t\t\t// rarely (when the last minted token is burnt) that we still do the swap here to avoid the gas cost of adding\n\t\t\t// an 'if' statement (like in _removeTokenFromOwnerEnumeration)\n\t\t\tuint256 lastTokenId = _allTokens[lastTokenIndex];\n\n\t\t\t_allTokens[tokenIndex] = lastTokenId; // Move the last token to the slot of the to-delete token\n\t\t\t_allTokensIndex[lastTokenId] = tokenIndex; // Update the moved token's index\n\n\t\t\t// This also deletes the contents at the last position of the array\n\t\t\t_allTokens.pop();\n\t\t\t_allTokensIndex[tokenId] = 0;\n    }\n}\n\ncontract ERC721Metadata is ERC721Enumerable {\n\t// TODO: Create private vars for token _name, _symbol, and _baseTokenURI (string)\n\tstring private _name;\n\tstring private _symbol;\n\tstring private _baseTokenURI;\n\n\t// TODO: create private mapping of tokenId's to token uri's called '_tokenURIs'\n\tmapping(uint256 => string) _tokenURIs;\n\n\tbytes4 private constant _INTERFACE_ID_ERC721_METADATA = 0x5b5e139f;\n\n\t/*\n\t\t* 0x5b5e139f ===\n\t\t*     bytes4(keccak256('name()')) ^\n\t\t*     bytes4(keccak256('symbol()')) ^\n\t\t*     bytes4(keccak256('tokenURI(uint256)'))\n\t\t*/\n\n\tconstructor(\n\t\t\tstring memory __name,\n\t\t\tstring memory __symbol,\n\t\t\tstring memory __baseTokenURI\n\t) {\n\t\t\t// TODO: set instance var values\n\t\t_name = __name;\n\t\t_symbol = __symbol;\n\t\t_baseTokenURI = __baseTokenURI;\n\t\t_registerInterface(_INTERFACE_ID_ERC721_METADATA);\n\t}\n\n\t// TODO: create external getter functions for name, symbol, and baseTokenURI\n\n\tfunction name() public view returns(string memory){\n\t\treturn _name;\n\t}\n\n\tfunction symbol() public view returns(string memory){\n\t\treturn _symbol;\n\t}\n\n\tfunction baseTokenURI() public view returns(string memory){\n\t\treturn _baseTokenURI;\n\t}\n\n\n\tfunction tokenURI(uint256 tokenId) external view returns (string memory) {\n\t\trequire(_exists(tokenId));\n\t\treturn string(abi.encodePacked(_baseTokenURI,_tokenURIs[tokenId]));\n\t}\n\n\t// TODO: Create an internal function to set the tokenURI of a specified tokenId\n\t// It should be the _baseTokenURI + the tokenId in string form\n\t// TIP #1: use strConcat() from the imported oraclizeAPI lib to set the complete token URI\n\t// TIP #2: you can also use uint2str() to convert a uint to a string\n\t// see https://github.com/oraclize/ethereum-api/blob/master/oraclizeAPI_0.5.sol for strConcat()\n\t// require the token exists before setting\n\n\tfunction setTokenURI(uint256 tokenId, string memory uri) whenNotPaused internal \n\t{\n\t\trequire(_exists(tokenId), \"Token does not exist\");\n\t\t_tokenURIs[tokenId] = uri;\n\t}\n\n}\n\n//  TODO's: Create CustomERC721Token contract that inherits from the ERC721Metadata contract. You can name this contract as you please\n//  1) Pass in appropriate values for the inherited ERC721Metadata contract\n//      - make the base token uri: https://s3-us-west-2.amazonaws.com/udacity-blockchain/capstone/\n//  2) create a public mint() that does the following:\n//      -can only be executed by the contract owner\n//      -takes in a 'to' address, tokenId, and tokenURI as parameters\n//      -returns a true boolean upon completion of the function\n//      -calls the superclass mint and setTokenURI functions\n\ncontract ERC721MintableComplete is ERC721Metadata {\n\n\tconstructor(string memory name, string memory symbol, string memory baseTokenURI) \n\tERC721Metadata(name, symbol,baseTokenURI)\n\t{\n\n\t}\n\n\tfunction _mint(address to, uint256 tokenId, string memory tokenURI) onlyOwner whenNotPaused public virtual\n\treturns(bool)\n\t{\n\t\tsuper._mint(to,tokenId);\n\t\tsuper.setTokenURI(tokenId,tokenURI);\n\t\treturn true;\n\t}\n\n}\n\n\n",
  "sourcePath": "/Users/alex/dev/schonetech/blockchain/Blockchain-Capstone/contracts/ERC721Mintable.sol",
  "compiler": {
    "name": "solc",
    "version": "0.8.11+commit.d7f03943.Emscripten.clang"
  },
  "schemaVersion": "3.4.4",
  "updatedAt": "2022-02-15T15:07:02.411Z",
  "devdoc": {
    "kind": "dev",
    "methods": {
      "_mint(address,uint256)": {
        "details": "Internal function to mint a new token Reverts if the given token ID already exists",
        "params": {
          "to": "address the beneficiary that will own the minted token",
          "tokenId": "uint256 ID of the token to be minted"
        }
      },
      "isApprovedForAll(address,address)": {
        "details": "Tells whether an operator is approved by a given owner",
        "params": {
          "operator": "operator address which you want to query the approval of",
          "owner": "owner address which you want to query the approval of"
        },
        "returns": {
          "_0": "bool whether the given operator is approved by the given owner"
        }
      },
      "setApprovalForAll(address,bool)": {
        "details": "Sets or unsets the approval of a given operator An operator is allowed to transfer all tokens of the sender on their behalf",
        "params": {
          "approved": "representing the status of the approval to be set",
          "to": "operator address to set the approval"
        }
      },
      "supportsInterface(bytes4)": {
        "details": "implement supportsInterface(bytes4) using a lookup table"
      },
      "tokenByIndex(uint256)": {
        "details": "Gets the token ID at a given index of all the tokens in this contract Reverts if the index is greater or equal to the total number of tokens",
        "params": {
          "index": "uint256 representing the index to be accessed of the tokens list"
        },
        "returns": {
          "_0": "uint256 token ID at the given index of the tokens list"
        }
      },
      "tokenOfOwnerByIndex(address,uint256)": {
        "details": "Gets the token ID at a given index of the tokens list of the requested owner",
        "params": {
          "index": "uint256 representing the index to be accessed of the requested tokens list",
          "owner": "address owning the tokens list to be accessed"
        },
        "returns": {
          "_0": "uint256 token ID at the given index of the tokens list owned by the requested address"
        }
      },
      "totalSupply()": {
        "details": "Gets the total amount of tokens stored by the contract",
        "returns": {
          "_0": "uint256 representing the total amount of tokens"
        }
      }
    },
    "version": 1
  },
  "userdoc": {
    "kind": "user",
    "methods": {},
    "version": 1
  }
}