{
  "contractName": "SolnSquareVerifier",
  "abi": [
    {
      "inputs": [
        {
          "internalType": "string",
          "name": "name",
          "type": "string"
        },
        {
          "internalType": "string",
          "name": "symbol",
          "type": "string"
        },
        {
          "internalType": "string",
          "name": "baseTokenURI",
          "type": "string"
        },
        {
          "internalType": "address",
          "name": "verifierAddress",
          "type": "address"
        }
      ],
      "stateMutability": "nonpayable",
      "type": "constructor"
    },
    {
      "anonymous": false,
      "inputs": [
        {
          "indexed": true,
          "internalType": "address",
          "name": "owner",
          "type": "address"
        },
        {
          "indexed": true,
          "internalType": "address",
          "name": "approved",
          "type": "address"
        },
        {
          "indexed": true,
          "internalType": "uint256",
          "name": "tokenId",
          "type": "uint256"
        }
      ],
      "name": "Approval",
      "type": "event"
    },
    {
      "anonymous": false,
      "inputs": [
        {
          "indexed": true,
          "internalType": "address",
          "name": "owner",
          "type": "address"
        },
        {
          "indexed": true,
          "internalType": "address",
          "name": "operator",
          "type": "address"
        },
        {
          "indexed": false,
          "internalType": "bool",
          "name": "approved",
          "type": "bool"
        }
      ],
      "name": "ApprovalForAll",
      "type": "event"
    },
    {
      "anonymous": false,
      "inputs": [
        {
          "indexed": false,
          "internalType": "address",
          "name": "newOwner",
          "type": "address"
        }
      ],
      "name": "OwnershipTransferred",
      "type": "event"
    },
    {
      "anonymous": false,
      "inputs": [
        {
          "indexed": false,
          "internalType": "address",
          "name": "sender",
          "type": "address"
        }
      ],
      "name": "Paused",
      "type": "event"
    },
    {
      "anonymous": false,
      "inputs": [
        {
          "indexed": false,
          "internalType": "bytes32",
          "name": "proofKey",
          "type": "bytes32"
        },
        {
          "indexed": false,
          "internalType": "address",
          "name": "to",
          "type": "address"
        }
      ],
      "name": "SolutionAdded",
      "type": "event"
    },
    {
      "anonymous": false,
      "inputs": [
        {
          "indexed": true,
          "internalType": "address",
          "name": "from",
          "type": "address"
        },
        {
          "indexed": true,
          "internalType": "address",
          "name": "to",
          "type": "address"
        },
        {
          "indexed": true,
          "internalType": "uint256",
          "name": "tokenId",
          "type": "uint256"
        }
      ],
      "name": "Transfer",
      "type": "event"
    },
    {
      "anonymous": false,
      "inputs": [
        {
          "indexed": false,
          "internalType": "address",
          "name": "sender",
          "type": "address"
        }
      ],
      "name": "Unpaused",
      "type": "event"
    },
    {
      "inputs": [
        {
          "internalType": "address",
          "name": "to",
          "type": "address"
        },
        {
          "internalType": "uint256",
          "name": "tokenId",
          "type": "uint256"
        }
      ],
      "name": "_mint",
      "outputs": [
        {
          "internalType": "bool",
          "name": "",
          "type": "bool"
        }
      ],
      "stateMutability": "nonpayable",
      "type": "function"
    },
    {
      "inputs": [
        {
          "internalType": "address",
          "name": "to",
          "type": "address"
        },
        {
          "internalType": "uint256",
          "name": "tokenId",
          "type": "uint256"
        },
        {
          "internalType": "string",
          "name": "tokenURI",
          "type": "string"
        }
      ],
      "name": "_mint",
      "outputs": [
        {
          "internalType": "bool",
          "name": "",
          "type": "bool"
        }
      ],
      "stateMutability": "nonpayable",
      "type": "function"
    },
    {
      "inputs": [],
      "name": "_owner",
      "outputs": [
        {
          "internalType": "address",
          "name": "",
          "type": "address"
        }
      ],
      "stateMutability": "view",
      "type": "function",
      "constant": true
    },
    {
      "inputs": [
        {
          "internalType": "bytes32",
          "name": "",
          "type": "bytes32"
        }
      ],
      "name": "_uniqueSolutions",
      "outputs": [
        {
          "internalType": "address",
          "name": "",
          "type": "address"
        }
      ],
      "stateMutability": "view",
      "type": "function",
      "constant": true
    },
    {
      "inputs": [
        {
          "internalType": "address",
          "name": "to",
          "type": "address"
        },
        {
          "internalType": "uint256",
          "name": "tokenId",
          "type": "uint256"
        }
      ],
      "name": "approve",
      "outputs": [],
      "stateMutability": "nonpayable",
      "type": "function"
    },
    {
      "inputs": [
        {
          "internalType": "address",
          "name": "owner",
          "type": "address"
        }
      ],
      "name": "balanceOf",
      "outputs": [
        {
          "internalType": "uint256",
          "name": "",
          "type": "uint256"
        }
      ],
      "stateMutability": "view",
      "type": "function",
      "constant": true
    },
    {
      "inputs": [],
      "name": "baseTokenURI",
      "outputs": [
        {
          "internalType": "string",
          "name": "",
          "type": "string"
        }
      ],
      "stateMutability": "view",
      "type": "function",
      "constant": true
    },
    {
      "inputs": [
        {
          "internalType": "uint256",
          "name": "tokenId",
          "type": "uint256"
        }
      ],
      "name": "getApproved",
      "outputs": [
        {
          "internalType": "address",
          "name": "",
          "type": "address"
        }
      ],
      "stateMutability": "view",
      "type": "function",
      "constant": true
    },
    {
      "inputs": [
        {
          "internalType": "address",
          "name": "owner",
          "type": "address"
        },
        {
          "internalType": "address",
          "name": "operator",
          "type": "address"
        }
      ],
      "name": "isApprovedForAll",
      "outputs": [
        {
          "internalType": "bool",
          "name": "",
          "type": "bool"
        }
      ],
      "stateMutability": "view",
      "type": "function",
      "constant": true
    },
    {
      "inputs": [],
      "name": "name",
      "outputs": [
        {
          "internalType": "string",
          "name": "",
          "type": "string"
        }
      ],
      "stateMutability": "view",
      "type": "function",
      "constant": true
    },
    {
      "inputs": [
        {
          "internalType": "uint256",
          "name": "tokenId",
          "type": "uint256"
        }
      ],
      "name": "ownerOf",
      "outputs": [
        {
          "internalType": "address",
          "name": "",
          "type": "address"
        }
      ],
      "stateMutability": "view",
      "type": "function",
      "constant": true
    },
    {
      "inputs": [
        {
          "internalType": "address",
          "name": "from",
          "type": "address"
        },
        {
          "internalType": "address",
          "name": "to",
          "type": "address"
        },
        {
          "internalType": "uint256",
          "name": "tokenId",
          "type": "uint256"
        }
      ],
      "name": "safeTransferFrom",
      "outputs": [],
      "stateMutability": "nonpayable",
      "type": "function"
    },
    {
      "inputs": [
        {
          "internalType": "address",
          "name": "from",
          "type": "address"
        },
        {
          "internalType": "address",
          "name": "to",
          "type": "address"
        },
        {
          "internalType": "uint256",
          "name": "tokenId",
          "type": "uint256"
        },
        {
          "internalType": "bytes",
          "name": "_data",
          "type": "bytes"
        }
      ],
      "name": "safeTransferFrom",
      "outputs": [],
      "stateMutability": "nonpayable",
      "type": "function"
    },
    {
      "inputs": [
        {
          "internalType": "address",
          "name": "to",
          "type": "address"
        },
        {
          "internalType": "bool",
          "name": "approved",
          "type": "bool"
        }
      ],
      "name": "setApprovalForAll",
      "outputs": [],
      "stateMutability": "nonpayable",
      "type": "function"
    },
    {
      "inputs": [
        {
          "internalType": "bool",
          "name": "paused",
          "type": "bool"
        }
      ],
      "name": "setPausedStatus",
      "outputs": [],
      "stateMutability": "nonpayable",
      "type": "function"
    },
    {
      "inputs": [
        {
          "internalType": "bytes4",
          "name": "interfaceId",
          "type": "bytes4"
        }
      ],
      "name": "supportsInterface",
      "outputs": [
        {
          "internalType": "bool",
          "name": "",
          "type": "bool"
        }
      ],
      "stateMutability": "view",
      "type": "function",
      "constant": true
    },
    {
      "inputs": [],
      "name": "symbol",
      "outputs": [
        {
          "internalType": "string",
          "name": "",
          "type": "string"
        }
      ],
      "stateMutability": "view",
      "type": "function",
      "constant": true
    },
    {
      "inputs": [
        {
          "internalType": "uint256",
          "name": "index",
          "type": "uint256"
        }
      ],
      "name": "tokenByIndex",
      "outputs": [
        {
          "internalType": "uint256",
          "name": "",
          "type": "uint256"
        }
      ],
      "stateMutability": "view",
      "type": "function",
      "constant": true
    },
    {
      "inputs": [
        {
          "internalType": "address",
          "name": "owner",
          "type": "address"
        },
        {
          "internalType": "uint256",
          "name": "index",
          "type": "uint256"
        }
      ],
      "name": "tokenOfOwnerByIndex",
      "outputs": [
        {
          "internalType": "uint256",
          "name": "",
          "type": "uint256"
        }
      ],
      "stateMutability": "view",
      "type": "function",
      "constant": true
    },
    {
      "inputs": [
        {
          "internalType": "uint256",
          "name": "tokenId",
          "type": "uint256"
        }
      ],
      "name": "tokenURI",
      "outputs": [
        {
          "internalType": "string",
          "name": "",
          "type": "string"
        }
      ],
      "stateMutability": "view",
      "type": "function",
      "constant": true
    },
    {
      "inputs": [],
      "name": "totalSupply",
      "outputs": [
        {
          "internalType": "uint256",
          "name": "",
          "type": "uint256"
        }
      ],
      "stateMutability": "view",
      "type": "function",
      "constant": true
    },
    {
      "inputs": [
        {
          "internalType": "address",
          "name": "from",
          "type": "address"
        },
        {
          "internalType": "address",
          "name": "to",
          "type": "address"
        },
        {
          "internalType": "uint256",
          "name": "tokenId",
          "type": "uint256"
        }
      ],
      "name": "transferFrom",
      "outputs": [],
      "stateMutability": "nonpayable",
      "type": "function"
    },
    {
      "inputs": [
        {
          "internalType": "address",
          "name": "newOwner",
          "type": "address"
        }
      ],
      "name": "transferOwnership",
      "outputs": [],
      "stateMutability": "nonpayable",
      "type": "function"
    },
    {
      "inputs": [
        {
          "components": [
            {
              "components": [
                {
                  "internalType": "uint256",
                  "name": "X",
                  "type": "uint256"
                },
                {
                  "internalType": "uint256",
                  "name": "Y",
                  "type": "uint256"
                }
              ],
              "internalType": "struct Pairing.G1Point",
              "name": "a",
              "type": "tuple"
            },
            {
              "components": [
                {
                  "internalType": "uint256[2]",
                  "name": "X",
                  "type": "uint256[2]"
                },
                {
                  "internalType": "uint256[2]",
                  "name": "Y",
                  "type": "uint256[2]"
                }
              ],
              "internalType": "struct Pairing.G2Point",
              "name": "b",
              "type": "tuple"
            },
            {
              "components": [
                {
                  "internalType": "uint256",
                  "name": "X",
                  "type": "uint256"
                },
                {
                  "internalType": "uint256",
                  "name": "Y",
                  "type": "uint256"
                }
              ],
              "internalType": "struct Pairing.G1Point",
              "name": "c",
              "type": "tuple"
            }
          ],
          "internalType": "struct Verifier.Proof",
          "name": "proof",
          "type": "tuple"
        },
        {
          "internalType": "uint256[2]",
          "name": "input",
          "type": "uint256[2]"
        }
      ],
      "name": "getProofKey",
      "outputs": [
        {
          "internalType": "bytes32",
          "name": "",
          "type": "bytes32"
        }
      ],
      "stateMutability": "pure",
      "type": "function",
      "constant": true
    },
    {
      "inputs": [
        {
          "internalType": "address",
          "name": "to",
          "type": "address"
        },
        {
          "internalType": "uint256",
          "name": "tokenId",
          "type": "uint256"
        },
        {
          "internalType": "string",
          "name": "tokenURI",
          "type": "string"
        },
        {
          "components": [
            {
              "components": [
                {
                  "internalType": "uint256",
                  "name": "X",
                  "type": "uint256"
                },
                {
                  "internalType": "uint256",
                  "name": "Y",
                  "type": "uint256"
                }
              ],
              "internalType": "struct Pairing.G1Point",
              "name": "a",
              "type": "tuple"
            },
            {
              "components": [
                {
                  "internalType": "uint256[2]",
                  "name": "X",
                  "type": "uint256[2]"
                },
                {
                  "internalType": "uint256[2]",
                  "name": "Y",
                  "type": "uint256[2]"
                }
              ],
              "internalType": "struct Pairing.G2Point",
              "name": "b",
              "type": "tuple"
            },
            {
              "components": [
                {
                  "internalType": "uint256",
                  "name": "X",
                  "type": "uint256"
                },
                {
                  "internalType": "uint256",
                  "name": "Y",
                  "type": "uint256"
                }
              ],
              "internalType": "struct Pairing.G1Point",
              "name": "c",
              "type": "tuple"
            }
          ],
          "internalType": "struct Verifier.Proof",
          "name": "proof",
          "type": "tuple"
        },
        {
          "internalType": "uint256[2]",
          "name": "input",
          "type": "uint256[2]"
        }
      ],
      "name": "mint",
      "outputs": [
        {
          "internalType": "bool",
          "name": "",
          "type": "bool"
        }
      ],
      "stateMutability": "nonpayable",
      "type": "function"
    }
  ],
  "bytecode": "0x60806040523480156200001157600080fd5b50604051620021ad380380620021ad8339810160408190526200003491620002c1565b600080546001600160a81b0319163360ff60a01b1916179055838383828282620000656301ffc9a760e01b6200010e565b620000776380ac58cd60e01b6200010e565b6200008963780e9d6360e01b6200010e565b82516200009e90600a9060208601906200014e565b508151620000b490600b9060208501906200014e565b508051620000ca90600c9060208401906200014e565b50620000dd635b5e139f60e01b6200010e565b5050600f80546001600160a01b0319166001600160a01b03969096169590951790945550620003b195505050505050565b6001600160e01b031980821614156200012657600080fd5b6001600160e01b0319166000908152600160208190526040909120805460ff19169091179055565b8280546200015c9062000374565b90600052602060002090601f016020900481019282620001805760008555620001cb565b82601f106200019b57805160ff1916838001178555620001cb565b82800160010185558215620001cb579182015b82811115620001cb578251825591602001919060010190620001ae565b50620001d9929150620001dd565b5090565b5b80821115620001d95760008155600101620001de565b634e487b7160e01b600052604160045260246000fd5b600082601f8301126200021c57600080fd5b81516001600160401b0380821115620002395762000239620001f4565b604051601f8301601f19908116603f01168101908282118183101715620002645762000264620001f4565b816040528381526020925086838588010111156200028157600080fd5b600091505b83821015620002a5578582018301518183018401529082019062000286565b83821115620002b75760008385830101525b9695505050505050565b60008060008060808587031215620002d857600080fd5b84516001600160401b0380821115620002f057600080fd5b620002fe888389016200020a565b955060208701519150808211156200031557600080fd5b62000323888389016200020a565b945060408701519150808211156200033a57600080fd5b5062000349878288016200020a565b606087015190935090506001600160a01b03811681146200036957600080fd5b939692955090935050565b600181811c908216806200038957607f821691505b60208210811415620003ab57634e487b7160e01b600052602260045260246000fd5b50919050565b611dec80620003c16000396000f3fe608060405234801561001057600080fd5b50600436106101325760003560e01c8062370c081461013757806301ffc9a71461014c578063058f27241461018e57806306fdde03146101af578063081812fc146101c4578063095ea7b3146101e457806318160ddd146101f757806323b872dd146101ff5780632f745c591461021257806342842e0e146102255780634e6ec247146102385780634f6ccce71461024b5780636352211e1461025e57806370a08231146102715780638f8a2a0a1461028457806395d89b41146102ad578063a22cb465146102b5578063a987d4c6146102c8578063b2bdfa7b146102db578063b88d4fde146102ee578063c87b56dd14610301578063d547cfb714610314578063e985e9c51461031c578063ed31058e1461032f578063f2fde38b14610342575b600080fd5b61014a610145366004611530565b610355565b005b61017961015a366004611563565b6001600160e01b03191660009081526001602052604090205460ff1690565b60405190151581526020015b60405180910390f35b6101a161019c366004611701565b610448565b604051908152602001610185565b6101b76104a0565b6040516101859190611785565b6101d76101d2366004611798565b610532565b60405161018591906117b1565b61014a6101f23660046117e1565b61054d565b6008546101a1565b61014a61020d36600461180b565b610744565b6101a16102203660046117e1565b610791565b61014a61023336600461180b565b6107e4565b6101796102463660046117e1565b610829565b6101a1610259366004611798565b610891565b6101d761026c366004611798565b6108cc565b6101a161027f366004611847565b6108e7565b6101d7610292366004611798565b600e602052600090815260409020546001600160a01b031681565b6101b7610902565b61014a6102c3366004611862565b610911565b6101796102d636600461192e565b6109bd565b6000546101d7906001600160a01b031681565b61014a6102fc366004611984565b610a31565b6101b761030f366004611798565b610a81565b6101b7610ad1565b61017961032a3660046119ff565b610ae0565b61017961033d366004611a29565b610b0e565b61014a610350366004611847565b610b83565b6000546001600160a01b031633146103885760405162461bcd60e51b815260040161037f90611aa5565b60405180910390fd5b60008054600160a01b83151581810260ff60a01b1984161790935560ff91041615151480159081906103c35750600054600160a01b900460ff165b1561044457600054600160a01b900460ff1615610415577f62e78cea01bee320cd4e420270b5ea74000d11b0c9f74754ebdbfc544b05a2583360405161040991906117b1565b60405180910390a15050565b7f5db9ee0a495bf2e6ff9c91a7834c1ba4fdd244a5e8aa4e537bd38aeae4b073aa3360405161040991906117b1565b5050565b8151805160209182015182850151805190840151604080880151805190870151885189890151935160009961048299989796959101611b25565b60405160208183030381529060405280519060200120905092915050565b6060600a80546104af90611b70565b80601f01602080910402602001604051908101604052809291908181526020018280546104db90611b70565b80156105285780601f106104fd57610100808354040283529160200191610528565b820191906000526020600020905b81548152906001019060200180831161050b57829003601f168201915b5050505050905090565b6000908152600360205260409020546001600160a01b031690565b600054600160a01b900460ff16156105775760405162461bcd60e51b815260040161037f90611bab565b6000610582826108cc565b9050806001600160a01b0316836001600160a01b031614156105f45760405162461bcd60e51b815260206004820152602560248201527f746f20616464726573732063616e2774206265207468652063757272656e742060448201526437bbb732b960d91b606482015260840161037f565b6001600160a01b0383166106595760405162461bcd60e51b815260206004820152602660248201527f746f2061646472657373206e6565647320746f20626520612076616c6964206160448201526564647265737360d01b606482015260840161037f565b6000546001600160a01b031633148061067757506106778133610ae0565b6106e85760405162461bcd60e51b815260206004820152603c60248201527f6d73672e73656e646572206973206e6569746865722074686520636f6e74726160448201527b18dd081bdddb995c881b9bdc88185c1c1bdd995908199bdc88185b1b60221b606482015260840161037f565b60008281526003602052604080822080546001600160a01b0319166001600160a01b0387811691821790925591518593918516917f8c5be1e5ebec7d5bd14f71427d1e84f3dd0314c0f7b2291e5b200ac8c7c3b92591a4505050565b600054600160a01b900460ff161561076e5760405162461bcd60e51b815260040161037f90611bab565b6107783382610cd7565b61078157600080fd5b61078c838383610d36565b505050565b600061079c836108e7565b82106107a757600080fd5b6001600160a01b03831660009081526006602052604090208054839081106107d1576107d1611aec565b9060005260206000200154905092915050565b600054600160a01b900460ff161561080e5760405162461bcd60e51b815260040161037f90611bab565b61078c83838360405180602001604052806000815250610a31565b6000806108368484610d55565b90506108428484610e66565b61088a83600880546000838152600960205260408120829055600182018355919091527ff3f7a9fe364faab93b216da50a3214154f22a0a2b415b23a84c8169e8b636ee30155565b9392505050565b600061089c60085490565b82106108a757600080fd5b600882815481106108ba576108ba611aec565b90600052602060002001549050919050565b6000908152600260205260409020546001600160a01b031690565b6001600160a01b031660009081526004602052604090205490565b6060600b80546104af90611b70565b600054600160a01b900460ff161561093b5760405162461bcd60e51b815260040161037f90611bab565b6001600160a01b03821633141561095157600080fd5b3360008181526005602090815260408083206001600160a01b03871680855290835292819020805460ff191686151590811790915590519081529192917f17307eab39ab6107e8899845ad3d59bd9653f200f220920489ca2b5937696c31910160405180910390a35050565b600080546001600160a01b031633146109e85760405162461bcd60e51b815260040161037f90611aa5565b600054600160a01b900460ff1615610a125760405162461bcd60e51b815260040161037f90611bab565b610a1c8484610829565b50610a278383610ea4565b5060019392505050565b600054600160a01b900460ff1615610a5b5760405162461bcd60e51b815260040161037f90611bab565b610a66848484610744565b610a7284848484610f39565b610a7b57600080fd5b50505050565b6060610a8c82610fe8565b610a9557600080fd5b600c600d6000848152602001908152602001600020604051602001610abb929190611c7c565b6040516020818303038152906040529050919050565b6060600c80546104af90611b70565b6001600160a01b03918216600090815260056020908152604080832093909416825291909152205460ff1690565b600080546001600160a01b03163314610b395760405162461bcd60e51b815260040161037f90611aa5565b600054600160a01b900460ff1615610b635760405162461bcd60e51b815260040161037f90611bab565b610b6e838388611005565b610b798686866109bd565b9695505050505050565b6000546001600160a01b03163314610bad5760405162461bcd60e51b815260040161037f90611aa5565b6001600160a01b038116610c115760405162461bcd60e51b815260206004820152602560248201527f4e6577206f776e6572206e6565647320746f20626520612076616c6964206164604482015264647265737360d81b606482015260840161037f565b6000546001600160a01b0382811691161415610c815760405162461bcd60e51b815260206004820152602960248201527f4e6577206f776e6572206e6565647320746f206265206120646966666572656e60448201526874206164647265737360b81b606482015260840161037f565b600080546001600160a01b0319166001600160a01b0383161790556040517f04dba622d284ed0014ee4b9a6a68386be1a4c08a4913ae272de89199cc68616390610ccc9083906117b1565b60405180910390a150565b600080610ce3836108cc565b9050806001600160a01b0316846001600160a01b03161480610d1e5750836001600160a01b0316610d1384610532565b6001600160a01b0316145b80610d2e5750610d2e8185610ae0565b949350505050565b610d4183838361119d565b610d4b83826112dd565b61078c8282610e66565b6000610d6082610fe8565b15610da65760405162461bcd60e51b8152602060048201526016602482015275746f6b656e496420616c72656164792065786973747360501b604482015260640161037f565b6001600160a01b038316610df75760405162461bcd60e51b815260206004820152601860248201527719da5d995b881859191c995cdcc81a5cc81a5b9d985b1a5960421b604482015260640161037f565b600082815260026020908152604080832080546001600160a01b0319166001600160a01b038816908117909155835260049091529020805460010190556000805460405184926001600160a01b03808816931691600080516020611d978339815191529190a450600192915050565b6001600160a01b0390911660009081526006602081815260408084208054868652600784529185208290559282526001810183559183529091200155565b600054600160a01b900460ff1615610ece5760405162461bcd60e51b815260040161037f90611bab565b610ed782610fe8565b610f1a5760405162461bcd60e51b8152602060048201526014602482015273151bdad95b88191bd95cc81b9bdd08195e1a5cdd60621b604482015260640161037f565b6000828152600d60209081526040909120825161078c92840190611489565b60006001600160a01b0384163b610f5257506001610d2e565b604051630a85bd0160e11b81526000906001600160a01b0386169063150b7a0290610f879033908a9089908990600401611c91565b6020604051808303816000875af1158015610fa6573d6000803e3d6000fd5b505050506040513d601f19601f82011682018060405250810190610fca9190611cc4565b6001600160e01b031916630a85bd0160e11b14915050949350505050565b6000908152600260205260409020546001600160a01b0316151590565b60006110118484610448565b6000818152600e60205260409020549091506001600160a01b0316156110715760405162461bcd60e51b815260206004820152601560248201527414dbdb1d5d1a5bdb88185b1c9958591e481d5cd959605a1b604482015260640161037f565b600f546040516310f35dbf60e21b81526001600160a01b03909116906343cd76fc906110a39087908790600401611ce1565b602060405180830381865afa1580156110c0573d6000803e3d6000fd5b505050506040513d601f19601f820116820180604052508101906110e49190611d3e565b15156001146111355760405162461bcd60e51b815260206004820152601d60248201527f536f6c7574696f6e20636f756c646e2774206265207665726966696564000000604482015260640161037f565b6000818152600e602090815260409182902080546001600160a01b0319166001600160a01b0386169081179091558251848152918201527f01d5f9f5a890e5385b4f1d07d3c8c1f739f82bb433ed461d4551b7af3edc6340910160405180910390a150505050565b60006111a8826108cc565b9050806001600160a01b0316846001600160a01b0316146112055760405162461bcd60e51b815260206004820152601760248201527627b7363c9037bbb732b91031b0b7103a3930b739b332b960491b604482015260640161037f565b6001600160a01b0383166112585760405162461bcd60e51b815260206004820152601a602482015279746f206d75737420626520612076616c6964206164647265737360301b604482015260640161037f565b611261826113eb565b6001600160a01b038416600090815260046020526040902061128290611428565b6001600160a01b03838116600081815260046020908152604080832080546001019055868352600290915280822080546001600160a01b03191684179055518593881691600080516020611d9783398151915291a450505050565b6001600160a01b03821660009081526006602052604081205461130190600161147d565b6000838152600760205260409020549091508082146113a8576001600160a01b038416600090815260066020526040812080548490811061134457611344611aec565b906000526020600020015490508060066000876001600160a01b03166001600160a01b03168152602001908152602001600020838154811061138857611388611aec565b600091825260208083209091019290925591825260079052604090208190555b6001600160a01b03841660009081526006602052604090208054806113cf576113cf611d5b565b6001900381819060005260206000200160009055905550505050565b6000818152600360205260409020546001600160a01b03161561142557600081815260036020526040902080546001600160a01b03191690555b50565b8054806114755760405162461bcd60e51b815260206004820152601b60248201527a436f756e7465723a2064656372656d656e74206f766572666c6f7760281b604482015260640161037f565b600019019055565b600061088a8284611d71565b82805461149590611b70565b90600052602060002090601f0160209004810192826114b757600085556114fd565b82601f106114d057805160ff19168380011785556114fd565b828001600101855582156114fd579182015b828111156114fd5782518255916020019190600101906114e2565b5061150992915061150d565b5090565b5b80821115611509576000815560010161150e565b801515811461142557600080fd5b60006020828403121561154257600080fd5b813561088a81611522565b6001600160e01b03198116811461142557600080fd5b60006020828403121561157557600080fd5b813561088a8161154d565b634e487b7160e01b600052604160045260246000fd5b604080519081016001600160401b03811182821017156115b8576115b8611580565b60405290565b6000604082840312156115d057600080fd5b604080519081016001600160401b03811182821017156115f2576115f2611580565b604052823581526020928301359281019290925250919050565b600082601f83011261161d57600080fd5b611625611596565b80604084018581111561163757600080fd5b845b81811015611651578035845260209384019301611639565b509095945050505050565b600081830361010081121561167057600080fd5b604051606081016001600160401b038111828210171561169257611692611580565b6040529150816116a285856115be565b81526080603f19830112156116b657600080fd5b6116be611596565b91506116cd856040860161160c565b82526116dc856080860161160c565b60208301528160208201526116f48560c086016115be565b6040820152505092915050565b600080610140838503121561171557600080fd5b61171f848461165c565b915061172f84610100850161160c565b90509250929050565b6000815180845260005b8181101561175e57602081850181015186830182015201611742565b81811115611770576000602083870101525b50601f01601f19169290920160200192915050565b60208152600061088a6020830184611738565b6000602082840312156117aa57600080fd5b5035919050565b6001600160a01b0391909116815260200190565b80356001600160a01b03811681146117dc57600080fd5b919050565b600080604083850312156117f457600080fd5b6117fd836117c5565b946020939093013593505050565b60008060006060848603121561182057600080fd5b611829846117c5565b9250611837602085016117c5565b9150604084013590509250925092565b60006020828403121561185957600080fd5b61088a826117c5565b6000806040838503121561187557600080fd5b61187e836117c5565b9150602083013561188e81611522565b809150509250929050565b60006001600160401b03808411156118b3576118b3611580565b604051601f8501601f19908116603f011681019082821181831017156118db576118db611580565b816040528093508581528686860111156118f457600080fd5b858560208301376000602087830101525050509392505050565b600082601f83011261191f57600080fd5b61088a83833560208501611899565b60008060006060848603121561194357600080fd5b61194c846117c5565b92506020840135915060408401356001600160401b0381111561196e57600080fd5b61197a8682870161190e565b9150509250925092565b6000806000806080858703121561199a57600080fd5b6119a3856117c5565b93506119b1602086016117c5565b92506040850135915060608501356001600160401b038111156119d357600080fd5b8501601f810187136119e457600080fd5b6119f387823560208401611899565b91505092959194509250565b60008060408385031215611a1257600080fd5b611a1b836117c5565b915061172f602084016117c5565b60008060008060006101a08688031215611a4257600080fd5b611a4b866117c5565b94506020860135935060408601356001600160401b03811115611a6d57600080fd5b611a798882890161190e565b935050611a89876060880161165c565b9150611a9987610160880161160c565b90509295509295909350565b60208082526027908201527f4f6e6c79206f776e657220616c6c6f776420746f207472616e73666572206f7760408201526606e6572736869760cc1b606082015260800190565b634e487b7160e01b600052603260045260246000fd5b8060005b6002811015610a7b578151845260209384019390910190600101611b06565b888152876020820152611b3b6040820188611b02565b611b486080820187611b02565b60c081019490945260e084019290925261010083015261012082015261014001949350505050565b600181811c90821680611b8457607f821691505b60208210811415611ba557634e487b7160e01b600052602260045260246000fd5b50919050565b6020808252601d908201527f436f6e7472616374206e6565647320746f20626520756e706175736564000000604082015260600190565b8054600090600181811c9080831680611bfc57607f831692505b6020808410821415611c1e57634e487b7160e01b600052602260045260246000fd5b818015611c325760018114611c4357611c70565b60ff19861689528489019650611c70565b60008881526020902060005b86811015611c685781548b820152908501908301611c4f565b505084890196505b50505050505092915050565b6000610d2e611c8b8386611be2565b84611be2565b6001600160a01b0385811682528416602082015260408101839052608060608201819052600090610b7990830184611738565b600060208284031215611cd657600080fd5b815161088a8161154d565b8251805182526020908101519082015261014081016020840151611d09604084018251611b02565b60200151611d1a6080840182611b02565b506040840151805160c08401526020015160e083015261088a610100830184611b02565b600060208284031215611d5057600080fd5b815161088a81611522565b634e487b7160e01b600052603160045260246000fd5b600082821015611d9157634e487b7160e01b600052601160045260246000fd5b50039056feddf252ad1be2c89b69c2b068fc378daa952ba7f163c4a11628f55a4df523b3efa2646970667358221220f5a9c51fe0b46f12b99869abe87b88ac9bbfb449b8611bde89026ce5d3bdc4b364736f6c634300080b0033",
  "immutableReferences": {},
  "source": "pragma solidity ^0.8.11;\n\nimport \"./ERC721Mintable.sol\";\nimport \"./ZokratesSquareVerifier.sol\";\n\n\n// TODO define another contract named SolnSquareVerifier that inherits from your ERC721Mintable class\ncontract SolnSquareVerifier is ERC721MintableComplete {\n\n\t// TODO define a mapping to store unique solutions submitted\n\tmapping(bytes32 => address) public _uniqueSolutions;\n\n\t// TODO define a contract call to the zokrates generated solidity contract <Verifier> or <renamedVerifier>\n\tVerifier _verifier;\n\n\t// TODO Create an event to emit when a solution is added\n\tevent SolutionAdded(bytes32 proofKey, address to);\n\n\n\tconstructor (string memory name, string memory symbol, string memory baseTokenURI, address verifierAddress)\n\tERC721MintableComplete(name,symbol,baseTokenURI)\n\t{\n\t\t_verifier = Verifier(verifierAddress);\n\t}\n\n\tfunction getProofKey(Verifier.Proof memory proof, uint[2] memory input) public pure returns (bytes32){\n\t\treturn keccak256(abi.encodePacked(proof.a.X,proof.a.Y, proof.b.X,proof.b.Y, proof.c.X,proof.c.Y, input[0], input[1]));\n\t}\n\n\t// TODO Create a function to add the solutions to the array and emit the event\n\tfunction addSolution(Verifier.Proof memory proof, uint[2] memory input, address to) internal {\n\t\tbytes32 proofKey = getProofKey(proof, input);\n\t\trequire(_uniqueSolutions[proofKey] == address(0), \"Solution already used\");\n\t\trequire(_verifier.verifyTx(proof, input) == true, \"Solution couldn't be verified\");\n\t\t_uniqueSolutions[proofKey] = to;\n\t\temit SolutionAdded(proofKey,to);\n\t}\n\n\t// TODO Create a function to mint new NFT only after the solution has been verified\n\t//  - make sure the solution is unique (has not been used before)\n\t//  - make sure you handle metadata as well as tokenSuplly\n\tfunction mint(address to, uint256 tokenId, string memory tokenURI, Verifier.Proof memory proof, uint[2] memory input) \n\tonlyOwner \n\twhenNotPaused \n\tpublic \n\treturns(bool){\n\t\taddSolution(proof,input,to);\n\t\treturn super._mint(to, tokenId, tokenURI);\n\t}\n\n}\n\n\n\n\n\n\n\n\n",
  "sourcePath": "/Users/alex/dev/schonetech/blockchain/Blockchain-Capstone/contracts/SolnSquareVerifier.sol",
  "compiler": {
    "name": "solc",
    "version": "0.8.11+commit.d7f03943.Emscripten.clang"
  },
  "schemaVersion": "3.4.4",
  "updatedAt": "2022-02-15T15:17:30.117Z",
  "networkType": "ethereum",
  "devdoc": {
    "kind": "dev",
    "methods": {
      "_mint(address,uint256)": {
        "details": "Internal function to mint a new token Reverts if the given token ID already exists",
        "params": {
          "to": "address the beneficiary that will own the minted token",
          "tokenId": "uint256 ID of the token to be minted"
        }
      },
      "isApprovedForAll(address,address)": {
        "details": "Tells whether an operator is approved by a given owner",
        "params": {
          "operator": "operator address which you want to query the approval of",
          "owner": "owner address which you want to query the approval of"
        },
        "returns": {
          "_0": "bool whether the given operator is approved by the given owner"
        }
      },
      "setApprovalForAll(address,bool)": {
        "details": "Sets or unsets the approval of a given operator An operator is allowed to transfer all tokens of the sender on their behalf",
        "params": {
          "approved": "representing the status of the approval to be set",
          "to": "operator address to set the approval"
        }
      },
      "supportsInterface(bytes4)": {
        "details": "implement supportsInterface(bytes4) using a lookup table"
      },
      "tokenByIndex(uint256)": {
        "details": "Gets the token ID at a given index of all the tokens in this contract Reverts if the index is greater or equal to the total number of tokens",
        "params": {
          "index": "uint256 representing the index to be accessed of the tokens list"
        },
        "returns": {
          "_0": "uint256 token ID at the given index of the tokens list"
        }
      },
      "tokenOfOwnerByIndex(address,uint256)": {
        "details": "Gets the token ID at a given index of the tokens list of the requested owner",
        "params": {
          "index": "uint256 representing the index to be accessed of the requested tokens list",
          "owner": "address owning the tokens list to be accessed"
        },
        "returns": {
          "_0": "uint256 token ID at the given index of the tokens list owned by the requested address"
        }
      },
      "totalSupply()": {
        "details": "Gets the total amount of tokens stored by the contract",
        "returns": {
          "_0": "uint256 representing the total amount of tokens"
        }
      }
    },
    "version": 1
  },
  "userdoc": {
    "kind": "user",
    "methods": {},
    "version": 1
  }
}